:100000000080001065490000994900009B490000EC
:100010009D4900009F490000A14900000000000028
:10002000000000000000000000000000A3490000E4
:10003000A549000000000000A7490000A9490000F0
:10004000AD490000AF490000B1490000B3490000CC
:10005000B5490000B7490000B9490000BB4900009C
:10006000BD490000BF490000C1490000C34900006C
:10007000C5490000C7490000C9490000CB4900003C
:10008000CD490000CF490000D1490000D34900000C
:10009000D5490000D7490000D9490000DB490000DC
:1000A000DD490000DF490000E1490000E3490000AC
:1000B000E5490000E7490000E9490000EB4900007C
:1000C000ED490000EF490000F149000010B5054C72
:1000D000237833B9044B13B10448AFF300800123F4
:1000E000237010BD100B001000000000647A0100A6
:1000F000084B10B51BB108490848AFF30080084809
:10010000036803B910BD074B002BFBD0BDE81040BE
:10011000184700BF00000000140B0010647A0100B3
:100120000C0B001000000000154B002B08BF134BF8
:100130009D46A3F5803A00218B460F461348144A8A
:10014000121A09F0DDFA0F4B002B00D098470E4B26
:10015000002B00D098470020002104000D000D481E
:10016000002802D00C48AFF3008008F01DFD2000ED
:10017000290000F023FE05F0EDF800BF00000800A4
:10018000008000100000000000000000100B0010B4
:100190002C160010000000000000000043691A68DF
:1001A00043681A4214BF01200020704773B50B4CFE
:1001B00000254FF47F0620468DE8600005230222CB
:1001C000074903F011FF8DE860000623022205496C
:1001D000204603F009FF02B070BD00BFA40E00105E
:1001E000A45B0100B15B010073B5174C00254FF40F
:1001F0007F0620468DE8600005230222134903F0A4
:10020000F3FE20468DE8600006230222104903F029
:10021000EBFE20468DE86000072302220D4903F023
:10022000E3FE20468DE86000082302220A4903F01D
:10023000DBFE8DE86000092302220849204603F016
:10024000D3FE02B070BD00BFA40E0010C15B010060
:10025000CA5B0100D75B0100E15B0100ED5B0100BF
:1002600084B073B506AC84E80F00002513484FF442
:100270007F060C9C04F03DF80123022210490F4830
:100280008DE8600003F0B0FE8DE8600003230222D9
:100290000C490A4803F0A8FE14B9FFF787FF03E0F2
:1002A000012C06D1FFF7A0FF06A8FFF777FF002873
:1002B000F2D102B0BDE8704004B07047A40E001047
:1002C000FE5B01000E5C010084B02DE9F04F89B0A7
:1002D00012AC84E80F0000244FF47F0301930094D4
:1002E000012302228149824803F07EFEA246254670
:1002F00018A8FFF753FF064612A8FFF74FFF07465F
:1003000024A8FFF74BFF1EAC01462046FFF746FF2F
:1003100095B9B7FA87F56D09002900F0DE80754BB5
:10032000DFF8FC910793744BDFF8F8810693734F65
:10033000DFF8F4B1724B60E0012D2FD11FB1351CF5
:1003400018BF012500E00225BAF1000F00F0AA80D5
:10035000BAF1010F00F0AC80BAF1020F00F0AD80ED
:1003600048B1644BDFF8B8910793634BDFF8B48171
:100370000693624FAEE0DFF8A891DFF8A8815F4FE7
:100380005C4BBAF1030F07935B4BDFF8A0B1069308
:100390005C4B059332D14FF0000A2FE0022D08D1BB
:1003A000002E08BF0125002F08BF032599B902912F
:1003B00007E0032D13D1002E08BF022589B90123C0
:1003C000029322AB93E803008DE8030094E80F004A
:1003D000FFF746FF8CE7474B07934B4B04E0454B39
:1003E00000E04A4B0793444BDFF83491DFF8348147
:1003F000424FDFF834B10693424B059300244FF48B
:100400007F068DE85000032302224149384803F05B
:10041000EBFD8DE85000042302223E49344803F0EE
:10042000E3FD8DE85000052302223B49304803F0EC
:10043000DBFD224605998DE8500007232C4803F088
:10044000D3FD224659468DE850000823284803F082
:10045000CBFD224639468DE850000923244803F09D
:10046000C3FD224641468DE850000A23204803F090
:10047000BBFD224649468DE850000B231C4803F083
:10048000B3FD224606998DE850000C23184803F06E
:10049000ABFD8DE850000D2322460799144803F068
:1004A000A3FD25E7DFF87890DFF878801B4F09E09F
:1004B000DFF86C90DFF8788003E0DFF87890DFF801
:1004C00064800E4F10B90AF1010A59E7094B0793EE
:1004D000094B0693DFF854B08EE7054803F009FF97
:1004E000504609B0BDE8F04F04B07047FE5B010014
:1004F000A40E00103D5C0100485C0100325C01006C
:10050000665C01007D5C0100855C0100945C01007B
:10051000C25C0100CD5C0100DA5C0100B75C010047
:100520001A5C0100255C0100575C01006E5C010053
:10053000AA5C01009F5C01002DE9F34717460546C0
:100540000E46194CDDF82880009313460A460146F2
:10055000204603F085FC404604F0A6FF134BA7F1AC
:10056000020A3246294600932046534603F078FC9F
:100570004FF00009404604F097FF534632462946A3
:100580002046CDF8009003F06BFC404604F08CFF51
:100590003B46324629462046CDF8289002B0BDE8B9
:1005A000F04703F05DBC00BFA40E0010BFBFBF004A
:1005B00007B532B9044B052200934FF47F03FFF7D0
:1005C000BBFF03B05DF804FB0AD7233CF7B5074631
:1005D000514E4FF47F050024304603F08AFE8DE82B
:1005E00030003046072302224C4903F0FDFC8DE821
:1005F0003000304609230222494903F0F5FC0A2362
:10060000012248498DE83000304603F0EDFC3846C1
:10061000454C13F043FF04F047FF45210846009482
:10062000FF230A22FFF788FF2B4600940F22372171
:100630003820FFF781FF00944FF47F430A224A21BC
:100640003B20FFF779FF0094FF230F2263214F2007
:10065000FFF772FF2B460094142218212920FFF780
:100660006BFF324F00944FF47F430A225421312014
:10067000FFF762FF45213B46084600940522FFF73D
:100680005BFF5E2108460094FF230522FFF754FF1D
:100690000094FF230A2245217220FFF74DFF2B46CD
:1006A00000940F2237210E20FFF746FF00944FF4ED
:1006B0007F430A224A212220FFF73EFF0094FF23B6
:1006C0000F2263216D20FFF737FF2B460094142281
:1006D00018210120FFF730FF00944FF47F430A22D6
:1006E00054211D20FFF728FF3B4600940522452199
:1006F0007720FFF721FFFF2305225E210094682069
:10070000FFF71AFF4FF07E5004F0CEFE304603B0E4
:10071000BDE8F04003F0EDBDA40E0010FE5B01004B
:10072000E85C0100ED5B01000AD7A33CBFBFBF003E
:100730007FB50246084903A809F014FF4FF47F4330
:100740000193002300931A4603A9044803F04CFCCC
:1007500007B05DF804FB00BFF85C0100A40E0010B8
:100760007FB50246084903A809F0FCFE00224FF4B9
:100770007F438DE80C0003A90223044803F034FCF6
:1007800007B05DF804FB00BFFE5C0100A40E001082
:100790007FB50268084903A809F0E4FE00224FF47F
:1007A0007F438DE80C0003A90323044803F01CFCDD
:1007B00007B05DF804FB00BF045D0100A40E00104B
:1007C00030B589B030B90446154D0FCD0FC42B6834
:1007D0002360FFDE03680A2B08D00446104A142564
:1007E00005FB03250FCD0FC42B68236000F0DAFC56
:1007F000046800221CB12368A4681A77FAE701A8EC
:1008000000F080FD079B1B681BB11A689B6814727F
:10081000FAE7012009B0BDE8304000F06DBD00BF2F
:100820000C5D010008B500F0BDFC03682BB11A682F
:10083000127F012A03D09B68F8E7012008BD002041
:1008400008BD0000052970B5064606DD6FF00B02F5
:100850000749084805F0AEF8FEE70546064B1424A4
:1008600004FB01340FCC0FC5236830462B6070BDEC
:10087000D45D0100A40E00102C0B001005282DE9FA
:10088000F74306DD6FF00C021249134805F092F8A9
:10089000FEE714235843114A00251658131834460E
:1008A0005F68DFF83C901D7406F10A08A31B59F835
:1008B00013302146FB1A013300930195631C3A461D
:1008C0000548023403F025FB4445EFD103B0BDE8F1
:1008D000F08300BFD45D0100A40E00102C0B0010AB
:1008E000A40B00102DE9F74F144FDFF858900025A6
:1008F0007B191A7C012A05D01435782DF8D103B064
:10090000BDE8F08FEE59D3F80480344606F10A0AA8
:100910004FF47F4BA31B59F813302146C3EB080358
:1009200001330093CDF804B0631C424604480234FE
:1009300003F0EFFA5445EDD1DEE700BF2C0B0010B9
:10094000A40E0010A40B001007B5064B7C228DE806
:100950000C007F231A460021034803F0DAFA03B0A3
:100960005DF804FB00AACC00A40E00100628F8B520
:1009700006DD6FF00A021E491E4805F01BF8FEE76F
:10098000002215461C4B7B264E270A244FF0010EF1
:1009900090420BDD97FBF0F1514319311E6043F893
:1009A000041C5C609C6083F80CE000E01D73013265
:1009B000062A03F11403EBD1012009F005FA0F4ECA
:1009C00000240A25032709F009FA90FBF5F303FB3D
:1009D0001500430093FBF7F3033346F8243001344A
:1009E000052CF0D1FFF77EFFBDE8F840FFF7ACBF64
:1009F000D45D0100A40E0010300B0010A40B0010F9
:100A000010B504460C2008F09FFA002204604260F2
:100A1000826010BD08B5102008F096FA002202602E
:100A200042608260C26008BD10B504460846FFF708
:100A3000E7FFE36822680133E3601AB92060A06031
:100A4000606010BD82605060206010BD38B5856860
:100A500004460DB9002038BD43686A689D420368AA
:100A600008BF42609D42AB6808BF036003B15A6093
:100A70006A6802B19360AB68A36011B1286808F09E
:100A80006BFA284608F068FAE368013BE360A36864
:100A9000002BDFD0186838BD036813B18360186875
:100AA000704718467047836823B19B6883600BB119
:100AB00018687047184670474FF0FF3070470000C5
:100AC00010B50446024B036001F074F9204610BDD6
:100AD0007C60010010B50446034B0360343343606F
:100AE00004F008FF204610BDE06E0100A0F10400F4
:100AF000F0E700BF10B50446064B503040F8503CBC
:100B0000343340F84C3CFFF7E5FF204604F0F2FE9A
:100B1000204610BD005E0100A0F10400EAE700BF1E
:100B200010B50446FFF7E6FF204605F01BFE204601
:100B300010BDA0F10400F3E708B5C9B203F0B0FAA4
:100B4000002008BD10B50446034B40F8083F04F0F0
:100B500089FF204610BD00BFF86F010010B50C4C96
:100B60000246206801B110BD90420FD0531E042BE5
:100B70000AD9052A8CBF06230123236005490623D1
:100B8000054804F017FF00E02260206810BD00BF98
:100B9000381200103C5E0100C40B0010037C70B5DD
:100BA000A3B1056882686E1E4468C36803C98642A3
:100BB0000ED82A44013282420AD38C4208D8E01867
:100BC0000130884234BF0020012070BD184670BD3E
:100BD000002070BD037F70B56BB10B7D5BB1056804
:100BE0000B6844689D424A68CE68086909D333445B
:100BF0009D4202D905E0184670BD94420AD30123F4
:100C000002E0944206D300230244944294BF184663
:100C1000002070BD002070BD2DE9F04387B000F0CA
:100C2000C1FA1B4B0568D3F800804FF0000965B38B
:100C30002C68237F3BB30026464524D0314601A8CB
:100C4000FFF700FE214601A8FFF7A8FF074678B18D
:100C50003046FFF713FE94E803000022FFF7A8FCDC
:100C6000012202990198FFF7A3FC84F81C9008E088
:100C70006168029B994204DB02462068FFF798FCFA
:100C800027770136D8E7AD68D1E707B0BDE8F08334
:100C9000381200102DE9F04389B001A800F032FBB2
:100CA00000F080FA0646079B154F1C6803684FF05A
:100CB000000814B325682A68696802F1030CA2F1E0
:100CC0000309BBB1D3F800E0DEF80000604501D8AD
:100CD000484501D29B68F4E7DEF804209142F9D13F
:100CE0003B6885F8088001338EF81C8000223B6049
:100CF000FFF75EFC3368A468DBE709B0BDE8F0836A
:100D0000E811001070B588B001A800F0FBFA00F0FF
:100D100049FA134E046804B3256801A92846FFF771
:100D200059FFC0B195E8030000222A77FFF740FC85
:100D30003368002B08DA00F0A9FB0A490A4808B01A
:100D4000BDE8704004F036BE0849074804F032FEA2
:100D50003368013B3360A468DDE708B070BD00BFB5
:100D6000CC000010795E0100C40B0010855E01000C
:100D700030B58DB005A800F0C5FA9DF82830012BDC
:100D800012D10C4B1B68002B0EDB0B4B00241D6893
:100D9000AC4209D021466846FFF754FD9DF810305B
:100DA000012B03D00134F3E7012000E000200DB057
:100DB00030BD00BFCC000010381200102DE9F04704
:100DC000624F94B00021384603F0C2FE0021604813
:100DD00003F0BEFE00215F4803F0BAFE5D4D002126
:100DE0005D4803F0B5FE0EAC0320FFF7EFFB0FCD1F
:100DF0000FC495E8030084E80300574E08AC0FCEFB
:100E00000FC496E8030084E80300514C02AE0FCCF7
:100E10000FC694E8030086E8030007F1100393E887
:100E200003008DE8030097E80F00FFF74DFA4B4BE6
:100E30004B4E186000F0E6FA00210320FFF78EFE0B
:100E4000FFF794FD00F06CF9FFF74CFDDFF8188117
:100E5000103D103C00F028FAFF2000F0AFFAFFF739
:100E600073FD3068FFF764FC3E4B1868FFF778FCB1
:100E70003D48FFF78DFC00F039FA63698146196837
:100E80007B691A687B6813406A6910686A6800EABF
:100E9000020A6268114218D19BB93449344804F0FF
:100EA00089FD3148FFF78CFC3249314804F082FD5E
:100EB0004FF07C5004F0F8FAFFF75AFF0028C9D031
:100EC0003CE000F0CDFA2C4903E02BB900F0B2FA77
:100ED0002A49274804F06EFDBAF1000F05D100F051
:100EE0001FFA2749224804F065FD00F033FA25492E
:100EF0001F4804F05FFDFFF705FFFFF78DFEFFF7CA
:100F0000C9FEFFF7EFFCFFF733FF8246B0B9D8F810
:100F1000043099459ED31C49154804F04BFD5046BA
:100F200000F0EAF9FFF77EFC002893D00F49104843
:100F300004F040FD0C48FFF743FC8BE713491448CD
:100F400004F038FD002014B0BDE8F087600E0010FA
:100F50000812001020120010F0110010C00B001039
:100F6000E8110010CC000010780E0010915E010016
:100F7000C40B0010A85E0100B95E0100C95E01004B
:100F8000D85E0100E25E0100FD5E0100235F01000A
:100F9000A40E001010B50446FFF79CFD204605F096
:100FA000E1FB204610BDA0F10400F3E710B50446B4
:100FB000FFF786FD204605F0D5FB204610BD00005A
:100FC00073B5324D324C0023324A3349284604F07F
:100FD0006DFB2846314D2246314905F041FB314B2E
:100FE000314A3249284603F085FA224630492846DC
:100FF00005F036FB00222F492F4803F0BFFD0022E9
:101000002E492F4803F0BAFD2E4D00222E492F48BD
:1010100003F0B4FD00222E492E4803F0AFFD2E4E02
:101020002E4B2F4A2F49284603F07AF922462E49A3
:10103000284605F015FB2D4D30462D4903F042FDA5
:101040002C492D4803F040FE3146284603F08AFA29
:1010500022462A49284605F003FB294B294D0193D6
:10106000294B2A4A00932A490133284600F04AFABC
:1010700022462849284605F0F3FA274C274D0FCD84
:101080000FC42B68236002B070BD00BFC40B0010FA
:10109000C800001003C0092002C009208C0E0010F7
:1010A000D50A0000A08601000BC009200AC0092053
:1010B0009D43000045C00920600E001044C0092077
:1010C00008120010A40E001043C0092020120010C6
:1010D00042C00920F0110010EC11001012C00920CC
:1010E00001C0092000C00920F50A0000200C0010F2
:1010F0001AC0092041C00920B80B0010450B0000A0
:10110000975F0100680F001006C0092008C0092081
:1011100009C00920C10A0000780E00109C5F010080
:1011200008B5FFF777FC014B186008BD3C120010B2
:1011300010B5202007F008FF0023436083610446B8
:1011400008F04CFE154B0340002BBEBF03F1FF33EC
:1011500063F07F030133184612F03CFDC4E902013D
:1011600008F03CFE0D4B0340002BBEBF03F1FF33E4
:1011700063F07F030133184612F02CFDC4E904012B
:10118000D4E9020113F03CF801232377044B2060DB
:101190002146BDE810401868FFF746BC7F0000807C
:1011A0003C120010014B1868704700BF3C12001041
:1011B00037B504460D4600F10801D1E9000113F0EE
:1011C0001FF86368014600930195236800220248D6
:1011D00002F070FE03B030BDA40E0010304B2DE9BC
:1011E000F74F304E1B68192530685D43FFF754FCFC
:1011F0000446C827002C50D0217F39B92046FFF77C
:10120000D7FF01213068FFF721FC44E00021204690
:10121000FFF7CEFFD4E902ABD4E9040152465B46A6
:1012200012F08AFB80462846894612F0D3FC02461B
:101230000B464046494612F05DFEA369CDE9000128
:1012400093FBF5F005FB103012F0C4FC8046894694
:1012500097FBF5F012F0BEFC42464B4612F020FD23
:1012600012F0CEFF424660604B46DDE9000112F00D
:1012700017FD5B46524612F061FB12F0C1FF4FF4BE
:101280007F0120602046FFF793FFA3693068013398
:10129000A361FFF708FC0446ACE703B0BDE8F08F9C
:1012A000D80000103C1200100C4A08B51368013336
:1012B00013600B4A116893FBF1F201FB123202B189
:1012C00043B9084B1B782BB1FFF732FF064A13686E
:1012D00001331360BDE80840FFF780BF40120010E3
:1012E000D0000010D400001044120010014B186808
:1012F000704700BF44120010014B1870704700BFC8
:10130000D400001070B504460646044D0FCD0FC43E
:1013100095E8070084E80700304670BD48120010C9
:1013200008B50C2007F010FE0146094B98685A6872
:10133000121A4A60DA68022092FBF0F01A6802443E
:101340000A60012298690A72BDE80840FFF76CBB89
:1013500048120010F7B5174CFF26A069FFF79CFB59
:10136000002528B3077A03682FB9019740686168A0
:10137000A268009008E04268D11E002941600DDAA1
:101380006168A268019500958A1A0B48194602F017
:1013900091FD0121A069FFF759FBE2E78DE84200CA
:1013A0000548194602F086FDA069FFF77CFBD8E7E7
:1013B00003B0F0BD48120010A40E0010F7B50646A9
:1013C0000E4C01902069E3680D4D94E8060010442E
:1013D00000900B44284602F09CFD27686268E36891
:1013E0002069A16810443B4400905B1A521A019690
:1013F0003944284602F08DFD03B0F0BD48120010BC
:10140000A40E001010B50A4C3C22642384E80C00A2
:1014100001232375FFF7FEFA03230A22A061A360CC
:10142000E2602361FF20BDE81040FFF7C7BF00BFA7
:101430004812001010B5094C2368A2689B1A002BB3
:101440000BDB0020FFF7BAFF2368A268FF209B1A7E
:101450002360BDE81040FFF7B1BF10BD4812001077
:1014600010B5094C2268A3681344752B0BDC0020CF
:10147000FFF7A4FF2268A368FF2013442360BDE8A0
:101480001040FFF79BBF10BD4812001008B50020A8
:10149000FFF794FF014B00221A7508BD4812001097
:1014A0004FF0FF3070470020704700F5127003C8FE
:1014B000704770B50025064628460131891A8D42CD
:1014C0000DD0AB18A6EBD304E47B03F0070344FA7A
:1014D00003F303F00103AB4018430135EFE770BDA0
:1014E0000FB407B5064B04AA1B6852F8041BD86852
:1014F00001920DF03DFB03B05DF804EB04B07047C2
:1015000030050010F8B504461F460D4616460799EB
:1015100000F02AFC0A4B3246236029463B4604F57C
:10152000147004F013F904F519700122069903F000
:1015300025FBD4F87032D4F8682220461A60F8BD32
:101540007C600100F8B51646D0F87432D0F86822F5
:1015500000F514741A6041F040010546204604F07D
:1015600031F93116204604F02DF93114204604F0EB
:1015700029F93112204604F025F93146204604F0BD
:1015800021F99521204604F01DF941F28837FF2109
:10159000204604F017F9030606460AD4D5F870323F
:1015A000D5F86822FF211A60204604F00BF9304676
:1015B000F8BD013FEBD1D5F87032D5F86822FF2194
:1015C0001A60204604F0FEF84FF0FF30F8BD00002E
:1015D00038B5054641F28834002237212846FFF706
:1015E000B1FF002229212846FFF7ACFF28B94FF4AC
:1015F0000073C5F87C32012038BD013CECD10248B3
:10160000FFF76EFF204638BDB460010070B5164686
:10161000D0F87432D0F8682200F514741A6041F0E2
:1016200040010546204604F0CDF83116204604F06E
:10163000C9F83114204604F0C5F83112204604F0F0
:10164000C1F83146204604F0BDF89521204604F04B
:10165000B9F841F28836FF21204604F0B3F80306BA
:101660000CD5013EF7D1D5F87032D5F86822FF21AC
:101670001A60204604F0A6F84FF0FF3070BDF8B5B0
:10168000D0F86822D0F8743200F514741A607A2108
:101690000546204604F096F80021204604F092F812
:1016A0000021204604F08EF80021204604F08AF83C
:1016B0000021204604F086F89521204604F082F8A7
:1016C00041F28837FF21204604F07CF803060646E5
:1016D0001AD4FF21204604F075F8FF21204604F0BB
:1016E00071F8FF21204604F06DF8FF21204604F038
:1016F00069F8D5F87032D5F86822FF211A602046C3
:1017000004F060F83046F8BD013FDBD1D5F8703207
:10171000D5F86822FF211A60204604F053F84FF0F4
:10172000FF30F8BD38B5054641F28834322003F069
:10173000B5FE2846FFF7A3FF002237212846FFF712
:1017400001FF4FF0804229212846FFF7FBFE38B900
:101750002846FFF794FF0123C5F87C32022038BDEC
:10176000013CE3D10248FFF7BBFE204638BD00BF75
:10177000D3600100F7B5D0F87432D0F8682200F5D4
:1017800014741A6048210546204604F01BF8002115
:10179000204604F017F80021204604F013F8012138
:1017A000204604F00FF8AA21204604F00BF8872108
:1017B000204604F007F8184F0026FF21204604F0C9
:1017C00001F8030618D402AB8DF8000004271E446C
:1017D000FF21204603F0F6FF013F06F8080CF7D181
:1017E000D5F87032D5F86822FF211A60204603F040
:1017F000E9FF9DF800000DE00136BE42DDD1D5F8CD
:101800007032D5F86822FF211A60204603F0DAFF13
:101810004FF0FF3003B0F0BD404B4C0070B50446B4
:1018200000F514761749304603F0D8FFD4F870322B
:10183000D4F8682210251A60FF21304603F0C2FF59
:10184000013DF9D12A4629462046FFF77BFE0128B3
:1018500001D00D4811E02046FFF78CFF012804D18C
:101860002046BDE87040FFF75DBF052804D1204643
:10187000BDE87040FFF7ACBE0448FFF731FE002022
:1018800070BD00BFA0860100F26001002A61010066
:10189000F8B506460C461746D0F87432D0F86822E0
:1018A00000F514751A60FF21284603F08BFFFE280F
:1018B000F9D12744BC424FF0FF01284604D003F081
:1018C00081FF04F8010BF5E703F07CFFFF212846B8
:1018D00003F078FFD6F87032D6F86822FF211A603C
:1018E000284603F06FFF0020F8BDD0F87C3270B5B9
:1018F0005A430E4611210546FFF724FE044630B92F
:101900004FF4007231462846FFF7C2FF00E0012481
:10191000204670BD7FB5002209210546FFF776FEFF
:1019200020B12348FFF7DCFD00203DE0102269468E
:101930002846FFF7ADFF044608B11E48F2E77E22B5
:101940007F216846FFF7B5FD58B1012828D1C5F8B9
:101950007C0230223F216846FFF7ABFD0130800258
:1019600022E04FF40073C5F87C323E2249216846DC
:10197000FFF79FFD2F22054631216846FFF799FDAD
:101980005022044653216846FFF793FD012303FAD2
:1019900000F005FB00000234A3405843400A03E076
:1019A0000548FFF79DFD2046002104B070BD00BF33
:1019B0006261010087610100AD61010038B5044634
:1019C000FFF72CFF2046FFF7A5FF04F51273C3E9CC
:1019D00000014FF4007210212046FFF7B3FD0546C9
:1019E00020B10648FFF77CFD012504E0044904F519
:1019F000147003F0F3FE284638BD00BFC661010035
:101A000040420F00F8B5D0F874321746D0F868227B
:101A100000F514740E4605461A60FE21204603F0B8
:101A2000D1FE3744BE4205D016F8011B204603F014
:101A3000C9FEF7E7FF21204603F0C4FEFF21204640
:101A400003F0C0FEFF21204603F0BCFE00F01F00A3
:101A500005280AD0D5F87032D5F86822FF211A601F
:101A6000204603F0AFFE0120F8BDFF21204603F021
:101A7000A9FE0028F9D0D5F87032D5F86822FF21E8
:101A80001A60204603F09EFE0020F8BDD0F87C329C
:101A900070B55A430E4618210546FFF753FD04461C
:101AA00030B94FF4007231462846FFF7ABFF00E033
:101AB0000124204670BD08B510B103689B699847A2
:101AC000002008BD00234381704740897047418151
:101AD0007047704710B5044604F044FE204610BD20
:101AE00030B589B000F1280405464FF4807369468B
:101AF00004300694079301F0A3FD60B99DF8090036
:101B000060B195F8283043B90D220DF10901204646
:101B100007F01CFD01E0002000E0204609B030BDC8
:101B200070B504460D460646054B44F8043B0FCD00
:101B30000FC40FCD0FC42B683046236070BD00BFAB
:101B400024620100002070470069704738B50446E0
:101B5000043001F099FC05461CB1236820461B6A3D
:101B60009847284638BD000010B50446024B036074
:101B700002F054FD204610BD6062010010B504461D
:101B8000FFF7F2FF204604F0EDFD204610BD08B53A
:101B9000043001F026FC003018BF0120404208BD8F
:101BA000022A10B5044601D1036902E0012A01D1DD
:101BB000C3681944201D01F06EFC08B9E06810BD2F
:101BC0004FF0FF3010BD07B5043001AB01F096FABD
:101BD00008B9019801E04FF0FF3003B05DF804FB55
:101BE00007B5043001AB01F034FB08B9019801E0FE
:101BF0004FF0FF3003B05DF804FB000084B038B54F
:101C0000054605AC84E80E00064B214640F8043B2F
:101C10004FF4097207F09AFC2846BDE8384004B03A
:101C2000704700BF606201000020704700207047CD
:101C30000020704710B58AB001A801F0C9FC48B96E
:101C40004FF4947004F090FD044601A9FFF768FF7B
:101C5000204600E000200AB010BD08B5084601F09B
:101C600077FD003018BF0120404208BD08B54FF491
:101C70000072002190F8400201F04AFE003018BFC7
:101C80000120404208BD08B5084601F005FD0030BE
:101C900018BF0120404208BD30B51446ADF2A46D16
:101CA0000B46D0F840221F4986A808F05BFCA50728
:101CB00005D414F0010F14BF0222012200E0032218
:101CC000A00505D561054CBF42F0080242F01002A4
:101CD00086A996A801F080F900BB230703D599993E
:101CE00096A801F0D8FB0DF27C454FF4097296A935
:101CF000284607F02BFC4FF40A7004F035FD04462B
:101D00004FF406720DF59161684607F01FFC95E8E7
:101D10000E002046FFF772FF204600E000200DF283
:101D2000A46D30BDE462010007B501A803F088FB93
:101D300001A806F061FF8168C268C90241EA024158
:101D40004268036841EA4211022293FBF2F341EA3E
:101D5000030243690069503B42EA4363013043EAAE
:101D6000405003B05DF804FB38B504460D4603F05F
:101D70001FFC0C4B23600C4B186848B10B4B2A46D8
:101D80001B680B49D86806F069FA012003F0E2FAF3
:101D9000C4F8400204F110011C6001F00DF9204666
:101DA00038BD00BF9C6201006412001030050010B5
:101DB000EB620100084B10B50360084B04461A683B
:101DC000904204D100210846196001F0F5F8204640
:101DD00003F0DAFB204610BD9C6201006412001083
:101DE0007F2810B516D931B1FF2812D80A4B803898
:101DF00033F8100010BD084A32F811408BB284420B
:101E000003D001318029F7D10B4603F18000C0B225
:101E100010BD002010BD00BF2C6301000649002347
:101E200031F8132032B1904201D00133F8E7034A70
:101E300032F81300704700BF0C6601002C640100EB
:101E400008B5044B53F8200003681B6A9847C0B2DA
:101E500008BD00BF6412001008B5044B53F8200001
:101E600003685B6A9847C0B208BD00BF64120010E7
:101E70002DE9F84306460D461446DFF830809F18DA
:101E8000BC420DD258F82600224603682946D3F8F2
:101E900028900023C84730B905F500750134EFE7F5
:101EA0000020BDE8F8830420BDE8F8836412001028
:101EB0002DE9F84306460D461446DFF830809F189A
:101EC000BC420DD258F82600224603682946D3F8B2
:101ED0002C900023C84730B905F500750134EFE7B1
:101EE0000020BDE8F8830420BDE8F88364120010E8
:101EF000012938B50C46154610D004D3032918D152
:101F00000123136013E00E4B53F8200098B10368CF
:101F10001B6B9847003018BF012038BD084B53F8A1
:101F2000200040B103685B6B984730B12860002007
:101F300038BD042038BD032038BD204638BD00BF61
:101F40006412001001380A44914204D011F8013B98
:101F500000F8013FF8E770470244904202D000F8D1
:101F6000011BFAE7704700F10B01002310F8012B69
:101F700002EBC31202EB5303884203F0FF03F5D1D7
:101F8000184670472DE9F041C56A04468D420F4658
:101F900002D10020BDE8F0810379FBB100F13008E7
:101FA00001232A4641464078FFF782FF10B1012005
:101FB000BDE8F081226AE369207113449D420DD28D
:101FC000E678012E0AD9E36941461D442A460123D9
:101FD0006078013EFFF76CFFF6B2F2E7002FD8D031
:101FE00001233A4604F130016078FFF741FF0028F1
:101FF000DDD1E762BDE8F08108B5036873B11A78F6
:1020000062B1D9888288914208D15878FFF724FFBD
:1020100010F0010F14BF0320002008BD092008BDE7
:1020200003692DE9F0410D4601F10906002B48D066
:10203000436911311C7B03F1FF3E04F00807FFB236
:102040001EF8012F202A0FD0052A08BFE52237B13C
:10205000A2F1410CBCF1190F9CBF2032D2B206F89C
:10206000012B8E42ECD100E031461A7A202A19D099
:102070002E2204F010044E1CDF1D01F8042BE4B2E4
:1020800017F8012F202A0CD034B1A2F1410EBEF175
:10209000190F9CBF2032D2B206F8012B8E42EFD12D
:1020A00000E031460E46DA7A2A72DA692A605C7EEE
:1020B0001A7E42EA0422AA80DA7D9B7D43EA02234B
:1020C000EB8000243470AE69EEB1EB69DBB10369DB
:1020D000B3B14FF6FF73028C9A4211D0D0F81C8036
:1020E000771E38F8140060B10021FFF779FE38B18F
:1020F000EB69013B9C4203D2013407F8010FF0E782
:10210000002400233355BDE8F08170B5002104465A
:10211000FFF738FF054600284FD12378032B44D121
:102120006379002B41D004F130060146E0624FF4A0
:1021300000723046FFF710FF552384F82E32AA2391
:1021400084F82F32522384F8303084F83130612300
:1021500084F8323084F817322369412284F833201E
:1021600084F816221A1284F8183284F819221A0CEC
:102170001B0E84F81B32E36884F81A221A127221AB
:1021800084F81C3284F81D221A0C1B0E84F81412D9
:1021900084F8151284F81E2284F81F326269012324
:1021A00031466078FFF784FE657100221146607841
:1021B000FFF79EFE003018BF012070BDCA7E8B7EE7
:1021C000032843EA022301BF487D0A7D42EA002238
:1021D00043EA02431846704710B50A46044600F128
:1021E000300101234078FFF743FEC0B994F82F2255
:1021F00094F82E3243EA02234AF65522934210D134
:10220000D4F86630084A23F07F4393420AD0D4F8CA
:10221000820020F07F40801A18BF012010BD0320EB
:1022200010BD022010BD00BF46415400F8B5036840
:1022300016461D78303D092D05D85A783A2A02D124
:102240000233036000E0002500230B60002D40F006
:10225000ED80814B1C68002C00F0EA800C60237834
:1022600063B16078FFF7F8FDC70707D4002E00F0D0
:10227000E180410740F1E0800A20F8BD0020207095
:102280006070FFF7DDFDC20700F1D8800EB1430793
:10229000F2D400212046FFF79FFF01280BD194F8CC
:1022A000F2310BB90D20F8BDD4F8F651204629467D
:1022B000FFF792FF00E00025032800F0C18000280E
:1022C000F0D194F83C2094F83B3043EA0223B3F574
:1022D000007FE7D194F8463094F8470094F840C066
:1022E00053EA002008BF606D0CF1FF33012BE06161
:1022F00084F803C0D6D894F83D30A370002BD1D019
:102300005A1E1A42CED194F842E094F8412042EA93
:102310000E2E1EF00F0FA4F808E0C3D194F844204D
:1023200094F8431094F83F6051EA022194F83E205B
:1023300008BF216D52EA0622B4D000FB0CFC02EB70
:102340001E166644B142ADD3891BB1FBF3F3002BDB
:10235000A8D040F6F5718B4205EB060703F10201A8
:102360002A440ED94FF6F576B34272D9A161A7621D
:102370002262BEF1000F95D1E36D032663628B00EC
:1023800014E00126A161A7622262BEF1000F89D08C
:10239000022E4FEA410318BF5B18624418BF01F0D8
:1023A000010162621CBF01EB5303012603F2FF131C
:1023B000B0EB532FFFF476AF4FF0FF332361032EC2
:1023C0004FF00003E36026D1637194F8612094F824
:1023D000603004F1300143EA02222A4462610123A1
:1023E0006078FFF745FDB0B994F82F2294F82E32AB
:1023F00043EA02234AF6552293420CD1226B174B33
:102400009A4208D103F1FF53D4F8142203F5005384
:1024100020339A4216D0124A0020138826700133C6
:102420009BB220711380E380E062F8BD0B20F8BD01
:102430000C20F8BD3046F8BD2846F8BD0320F8BD95
:102440000120F8BDD4F81C32E360D4F818322361BF
:10245000E1E7022696E700BF6C120010525261417C
:102460006812001083690239023B99423DBF8378AC
:10247000806A01FB0300002070470129F8B5064679
:102480000C4659D98369994256D20378022B27D03A
:10249000032B36D0012B51D101EB5107016A01EB1F
:1024A0005721FFF76FFD002848D1316AC7F30803B1
:1024B0000137334401EB5721304693F83050FFF792
:1024C00061FD00283AD1C7F308073E4496F8300072
:1024D000E30745EA00204CBF0009C0F30B00F8BD3C
:1024E000016A01EB1421FFF74DFD38BB640004F4D1
:1024F000FF74331993F8310093F8303043EA002029
:10250000F8BD016A01EBD411FFF73CFDB0B9A3009F
:1025100003F4FE7404F1300333449878DA7800044D
:102520005B7840EA0260344440EA032094F830309B
:10253000184320F07040F8BD0120F8BD4FF0FF3087
:10254000F8BD70B504460D46E1808168012901D1CE
:10255000022070BD03689A699142F9D271B91A7864
:10256000032A01D1596A49B90022E2601A89AA42B4
:10257000EED95B6A03EB1513236119E09E783601EF
:10258000B5420ED32068FFF778FF431C014618D0F0
:102590000128DDD923689B699842D9D2AD1BADB221
:1025A000EEE7E1602068FFF75DFF00EB15102061AA
:1025B000236805F00F05303303EB451565610020F6
:1025C00070BD012070BD0129F8B506460C461546C0
:1025D0006ED9836999426BD20378022B39D0032BD1
:1025E00047D0012B60D101EB5107016A01EB572164
:1025F000FFF7C8FC002858D1C7F3080314F0010402
:10260000334417BF93F83020EAB202F00F012A01D9
:102610001CBF02F0F0020A4383F83020316A013710
:102620000123337101EB57213046FFF7ABFCE0BBD0
:10263000C7F30807374414B1C5F3071506E097F848
:102640003020C5F3032522F00F02154387F83050E0
:102650002BE0016A01EB1421FFF794FC28BB640016
:1026600004F4FF74331983F830502D1283F831507D
:102670001BE0016A01EBD411FFF784FCA8B9A400A8
:1026800004F4FE7404F130033344DA78344412065F
:1026900002F0704215432A1284F830505A702A0C06
:1026A0002D0E9A70DD7000E0022001233371F8BD19
:1026B0000220F8BDF8B505460F4631B9C6686EB1BF
:1026C00083699E4228BF012609E0FFF7D6FE012854
:1026D0003BD9AB69984239D33E4600E001263446E7
:1026E000AB6901349C4204D3012E01D80020F8BD0F
:1026F000022421462846FFF7C0FE48B1411C02D102
:102700004FF0FF30F8BD01281FD0B442E8D1EDE70B
:102710006FF0704221462846FFF755FF98B947B938
:102720002B69EC605A1C0CD0013B2B6101236B71AF
:1027300007E0224639462846FFF745FF0028EFD03C
:1027400001E02046F8BD0128DAD00120F8BD2DE9CE
:10275000F843C58804460135ADB2884615B9042052
:10276000BDE8F8830369002BF9D015F00F075FD19E
:10277000C16801330361006819B90389AB42EED91E
:1027800056E08378013B13EA151351D1FFF775FE2C
:102790000128064602D80220BDE8F883421C02D177
:1027A0000120BDE8F883206883699E423AD3B8F1DE
:1027B000000FD4D0E168FFF77DFF0646002840D027
:1027C0000128E8D0431CEBD000212068FFF7DAFB9A
:1027D00080460028E4D120684FF400724146303032
:1027E000FFF7BAFB226831461046FFF73BFE4FF079
:1027F0000109D06223685FFA88F19A788A420ED97B
:1028000083F8049000212068FFF7BCFB08F1010861
:102810000028C5D12268D36A0133D362EAE7DA6AB5
:10282000521ADA62E66031462068FFF71BFE20612B
:102830002368E580303303EB471363610020BDE874
:10284000F8830720BDE8F8832DE9F74F4FF0FF0824
:102850000646444631693068FFF794FB00287BD177
:1028600075692B78002B63D0E97AE52B01F03F02E4
:1028700056D00F0702D50F2A52D101E00F2A46D1B8
:10288000D6F81CA0BAF1000F4BD0580605D503F0BE
:10289000BF04F3886A7B338402E0A34240D14246FE
:1028A00095F80D8090453AD14FF6FF7B2F784FF089
:1028B000000927F040077B1E0D275F430123284AAC
:1028C00019F8021068184078695C41EA00206BB181
:1028D000FFF7A4FAFE2F23D801903AF81700FFF76C
:1028E0009DFA019B83421BD1013701E0584517D166
:1028F00009F10109B9F10D0FE1D12A78510603D58B
:1029000013B13AF817305BB9013CE4B209E08CB975
:102910002846FFF728FB40450CD100201CE09046DC
:10292000FF2400213046FFF712FF002892D013E069
:10293000042011E04FF6FF733384B369DA7AD207CB
:10294000EED405F10B029542E7D015F8010B13F810
:10295000011B8842F7D0E3E703B0BDE8F08F00BF6A
:10296000EC6701002DE9F74F0B7807462F2B8846BF
:1029700001D05C2B01D108F101080024BC6098F85B
:1029800000301F2B5DD821463846FFF7DAFD7C6109
:1029900012E101313BF81120202AFAD02E2AF8D07A
:1029A00009B144F003044A4632F8020D2E2840F0E3
:1029B00096804FF0000A55464FF008093BF8110089
:1029C0004A1C002840F08F80BB691A78E52A04BFB2
:1029D00005221A70B9F1080F04BFAD00EDB205F081
:1029E0000C030C2B00F0CC8005F00302032A00F04E
:1029F000C780A10709D405F00305012D08BF44F0E5
:102A00001004042B08BF44F00804BB690021DC72E9
:102A10003846FFF796FD10B93846FFF715FFBB693A
:102A2000DB7A002840F0AF805A0700F1C580796951
:102A3000CB7ADB0640F1AE803B681878FFF7BEFB2F
:102A4000B86098F8003044462F2B08F10108F8D000
:102A50005C2BF6D0D7F81CB004F1FF39ABF10205BE
:102A6000002619F8010F06F101081F281AD92F288E
:102A700018D05C2816D0B8F5807F00F08D80012139
:102A8000FFF7AEF9002800F087807F2806D84C4970
:102A900011F8012F12B19042FAD17DE025F8020F12
:102AA0004646DEE72028A0440BEB460234BF042450
:102AB0000024002E70D032F8021D202901D02E29CA
:102AC00001D1013EF5E7002520212BF816500B22FD
:102AD000B869FFF741FA0BEB460929465AE7013E70
:102AE0007FF462AF65E7202803D02E2805D1B242DB
:102AF00008D044F00304114660E7CA4504D2B2424C
:102B000018D14BE0CA4549D3B9F10B0F04D144F0B9
:102B100003044FF00B0957E7B24203D044F003041B
:102B20003FF652AFAD00EDB232464FF00B094FF019
:102B3000080AE0E77F280CD900210192FFF750F93D
:102B4000019A18B11F4B184410F8800C44F002048D
:102B500028B11D4B13F8011F29B18842FAD144F066
:102B600003045F2006E0A0F1410189B2192919D8B8
:102B700045F00205B96901F80A000AF1010ABAE74D
:102B800044F0020435E7042816D113F0040F08BFFF
:102B9000052011E005200FE006200DE0B9F10B0F34
:102BA000C0D1B4E7A0F1610189B219299EBF2038D4
:102BB00045F0010580B2DDE703B0BDE8F08F00BF4E
:102BC00078680100F9670100816801002DE9F0478C
:102BD0004FF0FF08044645463E4F04262169002970
:102BE00065D02068FFF7CEF90646002861D16069FC
:102BF0000378002B68D0E52B50D02E2B4ED0C17A15
:102C000001F03F02090702D50F2A47D101E00F2A40
:102C10003CD15E0606D5E28890F80D8003F0BF0334
:102C2000228401E09D4239D1467B464536D14FF69C
:102C3000FF7902780D2102F03F02013A4A43D4F8AD
:102C40001CE04FF0010C002515F8078000EB08018F
:102C500091F801A010F8081041EA0A21BCF1000F18
:102C600006D0FE2A19D82EF812108C46013201E047
:102C7000494512D101350D2DE6D1017849061BD504
:102C8000FE2A0AD800212EF8121015E0C5B9FFF768
:102C90006AF9804514D1002618E0B046FF250021CE
:102CA0002046FFF754FD0646002897D001E0002E8D
:102CB000F1D00023236109E0013BDDB2B046EEE72D
:102CC0004FF6FF73238401E00426F2E73046BDE8A7
:102CD000F08700BFEC670100F8B54FF6FF73C588B9
:102CE000018C0446994208BF2946FFF72AFCB0B977
:102CF000E526012721692068FFF744F960B9636977
:102D00001E7023681F71E388AB4208D2014620463B
:102D1000FFF71DFD0028EDD0042808BF0220F8BDF4
:102D20000129F8B504460D4622D9836999421FD27C
:102D30000127A369AB4201D80020F8BD29462046EF
:102D4000FFF79BFB06460028F6D0012810D0411C57
:102D500010D0002229462046FFF735FC58B92369D8
:102D60005A1C01D13546E4E7013323616771F9E765
:102D70000220F8BD0120F8BD73B51C4616460B2293
:102D80000546FFF7DFF8052C0AD936F8023B03EBBE
:102D9000C4339BB203EB54043388A4B2002BF4D1A8
:102DA000072304F00F0101F13002392A03F1FF3348
:102DB00088BF01F137020DEB030124094A70F0D1FD
:102DC00002AA7E211A4402F8081C9C4202D02A5D05
:102DD000202A01D12C4401E00134F6E7072B9DBFE6
:102DE00002AAD21812F8082C202204F8012BA4EB16
:102DF000050298BF0133072AF0D902B070BD000068
:102E00002DE9F04F866985B0C7690C220546314629
:102E100001A8FFF797F89DF80F30DA071FD50023B8
:102E2000F3720124EB6101A9304623463A46FFF7CD
:102E3000A3FF00212846FFF784FB48B92846FFF787
:102E400003FD28B90134A4B2642CECD10720ADE015
:102E5000042840F0AB809DF80F30F372EF619DF8CD
:102E60000F309B070DD50024621CA4B237F8143034
:102E70000BB11446F8E719340D2394FBF3F4A4B214
:102E800000E0012400212846FFF75BFB002840F00A
:102E90008D800746064629692868FFF773F80028E1
:102EA00040F084806B691B78E52B00D033B906B9FC
:102EB000EF880136B6B2B44201D107E006460121DF
:102EC0002846FFF744FC0028E5D06FE0012C53D0E2
:102ED00039462846FFF735FB002867D1A869FFF778
:102EE00042F80646013CDFF8CC80A4B20F272969DE
:102EF0002868FFF747F80346002857D16A695FFA48
:102F000084FED5F81C900EF1FF3110739076D076C8
:102F10000D2041434FF6FF7A18465673D77250453D
:102F200018BF39F8110013F808C003F1010302F8C3
:102F30000C0018BF01314FEA202B9444002808BF31
:102F400050460D2B8CF801B0E9D14FF6FF73984233
:102F500002D039F811300BB94EF0400E82F800E083
:102F60002B6801221A7100212846FFF7F0FBE8B90F
:102F7000013CA4B2002CBAD129692868FFF702F8F5
:102F8000044690B96E69014620223046FEF7E4FF00
:102F90000B22A9693046FEF7D5FFAB690122DB7A27
:102FA00003F0180333732B681A71204605B0BDE88F
:102FB000F08F00BFEC67010048B9064B1A6802B1F8
:102FC000107009B100220A701960002070470B20B0
:102FD000704700BF6C1200102DE9F0438FB00191D3
:102FE0001646054600287DD00023036002F01E022D
:102FF00005A901A8FFF71AF900287AD102AB0B93B3
:103000003D4B019905A80C93FFF7ACFC0A9C10B945
:10301000002C08BF062016F01C0F06F01F0742D038
:1030200050B1042865D105A8FFF7EAFE002860D159
:1030300047F008070A9C05E0E37A13F0110F57D117
:10304000730751D43E073AD5FEF76EFE03120026F1
:10305000A073E373DDF81480030C000E2374E67292
:1030600026776677A677E677607498F800002146A1
:10307000FFF7A4F80123A676E6762675667588F82C
:1030800004300646C8B101464046D8F82C90FFF7F8
:1030900047FE00282DD10598013EC6604946FEF73F
:1030A00071FF40B125E020BBE37AD8061ED4B107FA
:1030B00001D5DA071CD43B0701D547F02007059E50
:1030C0002146F36A2C62EB61AF713078FFF776F836
:1030D0002861E3690020EB60F388A860A8612E6096
:1030E000AB8006E0092004E0082002E0042000E0B4
:1030F00007200FB0BDE8F083701200102DE9F74FE4
:103100009A460023CAF80030044688461546FEF762
:1031100073FF002840F09A80A3791E0600F1918089
:10312000D80740F19080E368A06804F1240B181AD6
:10313000854228BF0546002D00F08780A268C2F3B3
:103140000803002B64D120688378013B03EA5223F3
:1031500013F0FF030CD10AB9206904E061690193FF
:10316000FFF78BF9019B01280BD9411C49D0606105
:10317000D4F80090616948460193FFF773F9019B09
:1031800020B9A37963F07F03A3715AE06E0A00EBC4
:1031900003071DD099F802209919914288BFD61AC9
:1031A000F3B23A46414699F80100FEF761FEA37971
:1031B00040BB5A060AD5A069C01B864206D94FF407
:1031C0000072594608EB4020FEF7BCFE76022DE067
:1031D000A26997421BD0A3795B060AD50123594601
:1031E00099F80100FEF764FEA37958B923F0400373
:1031F000A371206801233A4659464078FEF738FE0D
:1032000028B1A37963F07F03A37101201EE0A761B9
:10321000A1684046C1F30801C1F50076AE4228BF5F
:103220002E46214432462431FEF78CFEA368B0447A
:103230003344A360DAF80030AD1B3344CAF80030E1
:1032400079E7022002E0072000E0284603B0BDE84D
:10325000F08F2DE9F74F9B460023CBF80030044652
:1032600089469046FEF7C8FE002840F0B780A37953
:10327000180600F1AA80990740F1A980E36813EBD2
:10328000080F80F0978004F124030193B8F1000F38
:1032900000F09080A368C3F30802002A6CD1206874
:1032A0008678013E06EA532616F0FF0613D133B99D
:1032B000216951B9FFF7FEF90146206103E0616918
:1032C000FFF7F8F90146002974D00129A3791AD033
:1032D0004A1C7FD06161A3795B060CD5206801236D
:1032E000A26901994078FEF7E3FDA379002871D126
:1032F00023F04003A371D4F800A061695046FFF7A2
:10330000B1F820B9A37963F07F03A3715DE05FEAB0
:10331000582500EB06071FD09AF8023072199A421E
:1033200088BF9D1BEBB23A4649469AF80100FEF76A
:10333000BFFD00284DD1A169C91B8D420AD94FF4A8
:10334000007209EB41210198FEF7FCFDA37923F0FF
:103350004003A3716D0221E0A3699F420BD0A268D4
:10336000E3689A4207D201233A4601999AF801008C
:10337000FEF77EFD68BBA761A0684946C0F3080060
:10338000C0F50075454528BF454620442A462430EF
:10339000FEF7D8FDA37943F04003A371A368A944C5
:1033A0002B44A360DBF80030C5EB08082B44CBF8B6
:1033B00000306BE7A368E2680020934288BFE360B7
:1033C000A37943F02003A37108E0022006E0072060
:1033D00004E0A37963F07F03A371012003B0BDE88B
:1033E000F08F70B50446FEF707FE00284BD1A37995
:1033F00003F0200202F0FF00002A44D05B060DD546
:1034000020680123A26904F124014078FEF750FDF1
:10341000002836D1A37923F04003A371E169206825
:10342000FEF7B0FD064670BB256AEB7A43F0200339
:10343000EB72E3682B77E3681B126B77E389AB775A
:10344000E37BEB7723691A12AB761B0C2B751B12EF
:10345000EA766B75FEF768FC0312A875EB75030C32
:10346000000E2B766876AE74EE74A379012223F0F9
:103470002003A37123681A712068BDE87040FEF72D
:1034800044BE012070BD70BD10B50446FFF7A9FF12
:1034900000B9206010BD70B504460D46FEF7ACFDC6
:1034A000002840F09380A279160600F18C80E36832
:1034B000AB4203D212F0020F08BF1D460022A368E0
:1034C000A260002D75D02068867876026BB1013B32
:1034D0006A1EB2FBF6F2B3FBF6F18A4205D37242E2
:1034E0001340A360ED1A61690AE0216939B9FFF759
:1034F000E1F8012801462ED0013053D021616161ED
:10350000B1B900252EE0A37920689A0713D5FFF7FB
:10351000D1F8014698B14B1C44D001291BD923682E
:103520009B69994217D2A36861613344A360AD1BC4
:10353000B542E8D804E0FEF7A0FF0146EBE73546C8
:10354000A3682B44A360C5F30803002BD9D02068DF
:10355000FEF788FF20B9A37963F07F03A37132E0FF
:1035600000EB5525A368C3F3080313B3A269954282
:103570001FD0A37904F1240613F0400F0AD020686D
:10358000012331464078FEF793FCA37958B923F024
:103590004003A371206801232A4631464078FEF794
:1035A00067FC28B1A37963F07F03A371012070BD8C
:1035B000A561A368E268934207D9E360A37943F069
:1035C0002003A37101E0022070BD002070BD000047
:1035D00030B587B00191044600B30146002201A82E
:1035E000FEF724FEB8B903ABA361144B0199E36164
:1035F00020462568FFF7B6F958B9616981B1CB7AE1
:10360000DB0601D4052006E02878FEF7D7FDA06090
:1036100006E00428F6D0002323600DE009200BE02B
:10362000EB880021A3802046FEF78BFF0428034689
:10363000E8D0002BEFD1184607B030BD7012001053
:103640007FB504460E46FEF7D7FC0546F8B926B905
:1036500001462046FEF775FF18E001ABA3610D4B54
:103660002046E361FFF7B2FA042801D1256100E0AA
:1036700060B931462046FEF7D3FC00212046FFF713
:1036800066F8042802D10023236100E0054628469D
:1036900004B070BD7012001070B598B00190012296
:1036A00006A901A8FEF7C2FD044600284AD103ABD3
:1036B0000C93264B019906A80D93FFF753F9044686
:1036C00000283FD10B9E36B1F37A13F0010F0CBFE7
:1036D0000024072400E00624069B31461878FEF7F4
:1036E0006DFD054674BBF37ADB0619D5012813D9A5
:1036F000242206A90FA8FEF725FC02210FA8119588
:10370000FEF71FFF0446E8B90FA8FFF75FFA04466B
:1037100020B1042804D015E0022413E0072411E0AE
:1037200006A8FFF7D9FA044660B925B90698FEF74E
:10373000ECFC044606E029460698FFF7F1FA044639
:103740000028F3D0204618B070BD00BF70120010E2
:103750002DE9F04F93B00590FEF7E6FA01220646F8
:1037600009A905A8FEF762FD04460746002840F0B7
:10377000C98006AB0F93654B059909A81093FFF715
:10378000F1F8044680B1042840F0BC80394609981D
:10379000FEF790FF054648B1012809D102242946C9
:1037A0000998FFF7BDFAADE00824ABE00724F6E77F
:1037B000431C00F0828039460998FEF7E3FB04467B
:1037C0000028ECD1099F29463846FEF74BFE07F149
:1037D0003008214604904FF400724046FEF7BCFBCF
:1037E0000B2220214046FEF7B7FBC6F307430093A8
:1037F0009DF80030102287F84830330E01939DF871
:1038000004305FFA86FA87F84930EBB202939DF8EC
:103810000830C6F3072B87F84A30C5F30723039314
:103820009DF80C3025FA02F62E245FFA86F9360A46
:1038300087F83B2087F84B302022414607F15000A3
:1038400087F8304087F846A087F847B087F844905B
:1038500087F84560FEF776FB099987F851400878AC
:103860000B9A0328049B03D1486A824208BF0022B6
:1038700087F86A201012120C87F86420121287F859
:103880006B0087F865208F78CFB109985A1CC36206
:103890004FF00103002103710492FEF773FB04460D
:1038A00000287FF47CAF01464FF400724046013F90
:1038B000FEF752FBFFB2049BE6E701246FE709A87D
:1038C000FFF79EFA044600287FF469AF0E9B102292
:1038D000DA729DF8002009981A769DF8042083F882
:1038E00016A05A769DF8082083F817B09A769DF8AE
:1038F0000C2083F81490DA765E7501230371FEF7CD
:1039000004FC0446204613B0BDE8F08F701200108E
:103910002DE9F04F884687B01646E0B901291CD83A
:10392000531E134019D1C44A1468C4B12370FEF762
:1039300087FAC30715D400F0040303F0FF0093B91E
:1039400005AA0121FEF7D4FA08B1012081E2059B06
:103950007F2BFAD909E00B207BE2132079E20C20BF
:1039600077E2032075E20A2073E2B8F1000F14BF7A
:103970004FF000094FF03F09C9EB030305936EB9FF
:103980004FF4FA62B3FBF2F2AC4931F8160082420E
:1039900001D20136F9E7AA4A32F81660760A03D056
:1039A000812E28BF802600E00126B3FBF6F540F605
:1039B000F572954240F23B824FF6F572954240F225
:1039C0004482AD0005F2072500226D0A032702920A
:1039D0004FF0200A0AEB09020192029A05EB020B52
:1039E000019A9344C9EB06025A44934201D20E2035
:1039F0002FE204AA03210020FEF77AFA002840F003
:103A00001382049B013BB3F5004F80F00D82049AB2
:103A1000032F02F1FF335B44C2F1000203EA020309
:103A200008BF019ACBEB030304BFD2189A44049356
:103A300008BF1346059A14BFED1801930299CAEB0B
:103A400002035B1B5B1AB3FBF6F3022F039305D152
:103A500040F6F57303999942C9D90AE0032F06D1BC
:103A60004FF6F573039A9A42C1D90C2308E0022F4E
:103A700005D1B2F5803F34BF0423062300E00123C3
:103A8000B8F1000F48D104F1300B4FF400724146F9
:103A90005846FEF761FA84F8F231FE2384F8F331D8
:103AA00043F6C163059A012009EB0201B1FBF3F172
:103AB0008B0843F03F0384F8F4313F2384F8F63158
:103AC000131284F8FB31130C84F8FC31552384F86D
:103AD000FA2184F82E32120EAA2384F8EF0184F81A
:103AE000F001049184F8F51184F8FD2184F82F3257
:103AF00084F8F181034684F8F78184F8F88184F82A
:103B0000F981424659464046FEF7D2F900287FF433
:103B10001CAF4FF0F80B01E04FF0F00B04F1300850
:103B20004FF4007200214046FEF716FA0B22454979
:103B30004046FEF707FA0023032F84F83B3084F851
:103B4000413018BF0223022284F84230059B84F8DA
:103B50003C200122B3F5803F84F840204FEA232225
:103B600021BF84F8503084F851201A0C1B0E34BF4A
:103B700084F8433084F8533084F83EA04FF03F037C
:103B80004FEA2A2A84F83FA084F848304FF0000A10
:103B90004FF0FF0334BF84F8442084F8522084F8A7
:103BA0004A3084F83D6084F845B084F849A084F830
:103BB0004BA084F84C9084F84DA084F84EA084F873
:103BC0004FA0FEF7B1F8032F04904FEA20224FEAEE
:103BD00010433BD184F875302B1284F855302B0CF0
:103BE00084F856302B0E84F85730022384F85C306A
:103BF000012384F86030062384F86230802384F83F
:103C0000730084F87030000E292384F8742084F83F
:103C1000760084F8545084F85DA084F85EA084F89F
:103C20005FA084F861A084F863A084F87230132246
:103C3000054904F1770021E06C120010D4680100FE
:103C4000BE680100896801009568010084F8593058
:103C50002B1284F84730802384F8570084F85430BE
:103C6000000E29237C4984F8582084F85A0084F8EF
:103C7000465084F85630132204F15B00FEF762F9D7
:103C8000552384F82E32AA2384F82F324A46012382
:103C900041460020FEF70CF900287FF456AE032FB2
:103CA00005D1012309F106024146FEF701F94FF45F
:103CB000007200214046FEF74FF9032F13D0674BE7
:103CC000012F18BF6FF0FF0343EA0B03FF224FEAF7
:103CD000136B049384F8303084F8312084F8322058
:103CE00084F833B01CE06BF0FF03049384F83030A9
:103CF000FF2384F8313084F8323084F8333084F88C
:103D0000343084F8353084F8363084F8373084F82D
:103D1000383084F8393084F83A300F2384F83B3057
:103D2000019B414603F1010A019A01230020FEF79D
:103D3000BFF8014600287FF408AE4FF400724046F9
:103D4000FEF70AF901230493049B9D420FD9012336
:103D50005246414600200AF1010BFEF7A9F800285F
:103D60007FF4F3AD049BDA4601330493ECE7029B46
:103D70005246032F18BF1E465644012341460020D9
:103D800002F1010BFEF794F8054600287FF4DDAD43
:103D9000B3455A46F1D1032F3DD1522384F8303038
:103DA00084F83130612384F8323084F81732039B71
:103DB0004122013B84F8332084F81622C3F3072202
:103DC00084F8183284F819221A0C1B0E84F81B325E
:103DD000022384F81C32552384F82E32AA23722140
:103DE00084F82F32012384F8141284F8151284F811
:103DF0001A22414609EB030284F81D0284F81E02D0
:103E000084F81F02FEF754F8012309F10702414626
:103E10002846FEF74DF8002211461046FEF768F8D6
:103E2000003018BF012014E001230493EFE505EBF7
:103E3000450501356D080335012705F2FF152022E0
:103E40006D0A02924FF0010AC4E502356D000227A7
:103E5000F3E707B0BDE8F08FA968010000FFFF009D
:103E600030B585B0089CCC258DF804508DF806102F
:103E70000D128DF8082011121A128DF80920C4F3C2
:103E800085228DF807108DF80A30C4F3C441D31091
:103E9000C4F3C40403EBC10304EB421401A90922D7
:103EA0008DF805508DF80B308DF80C4000F08FF92F
:103EB00005B030BD7FB5099C089DD2268DF8046001
:103EC0008DF806100E128DF8082011121A128DF8B6
:103ED00009208DF80A30C4F385222B128DF80710C3
:103EE0008DF80B30C4F3C441D310C4F3C40403EB06
:103EF000C10304EB421401A90B228DF805608DF873
:103F00000C508DF80D308DF80E4000F060F904B0C3
:103F100070BD7FB5099C089DCE268DF804608DF894
:103F200006100E128DF8082011121A128DF80920B1
:103F30008DF80A30C4F385222B128DF807108DF806
:103F40000B30C4F3C441D310C4F3C40403EBC10366
:103F500004EB421401A90B228DF805608DF80C507A
:103F60008DF80D308DF80E4000F031F904B070BDC1
:103F700007B57D238DF8043000238DF805308023AC
:103F80008DF8061080F834108363C363042912D8B7
:103F9000DFE801F00511090D0300062300E0072307
:103FA0000364082309E0082303640C2305E00C23C1
:103FB0000364102301E0082303644364026C836CF0
:103FC000416C5343802292FBF3F380F83630C36C8C
:103FD0004B4392FBF3F201A980F83720032200F053
:103FE000F6F803B05DF804FB2DE9F0470E46ADF599
:103FF0007A7D002407462146914601A84FF4797244
:104000009A46DDF80C54009405F07AFB304606F031
:104010001FFC9DF8081480463846FFF7A9FFE423EB
:104020000522694638468DF800308DF801408DF83C
:1040300002A08DF803408DF8049000F0C8F8C5F395
:1040400085227F23C5F3C4418DF80030C5F3C40534
:10405000D31003EBC10305EB421569460322384632
:104060008DF801308DF8025000F0B1F806238DF87C
:104070000030013E444505DA16F8013F01340DF8E1
:104080000430F7E70DEB080300225A70694608F187
:104090000202384600F0F2F80DF57A7DBDE8F087AF
:1040A00013B500231F2904460093ADF804302AD825
:1040B0000A290DD190F82D20E4210132D2B280F8E6
:1040C0002C3080F82D208DF800108DF801300AE09A
:1040D0000D2913D1E4228DF8002090F82D2080F8CE
:1040E0002C308DF801308DF80220694605228DF8BC
:1040F00003308DF8043000F06AF814E00C2912D176
:1041000000F0F7F80FE0FE228DF800208DF8021085
:10411000032269468DF8013000F059F894F82C30EC
:10412000013384F82C3094F82C2094F836309A42DD
:1041300018D194F82D3000220133DBB2E42184F849
:104140002C208DF800108DF801208DF803208DF8BB
:10415000042084F82D300522694620468DF802306F
:1041600000F035F894F82D2094F837309A4214D1A5
:104170000023E42284F82D308DF801308DF80230D0
:104180008DF8033094F82C308DF800206946052214
:1041900020468DF8043000F01AF802B010BD08B5C2
:1041A000503001F0F1FBBDE808404FF4FA7001F027
:1041B00069B938B500F1680500F15004284601F0EE
:1041C000BBFA18B1204601F0EBFBF7E738BD2DE94B
:1041D000F04105460E461746FFF7EBFFFF21284644
:1041E000FFF7DDFF002405F15008BC420BDA0F2C6D
:1041F000315D03DC404601F0C7FB02E02846FFF7D3
:10420000CEFF0134F1E705F16804204601F094FA8D
:1042100010B901F043F9F8E7204601F08DFA58B1E2
:1042200005F1500001F0BCFB062808D0152803D189
:104230004FF0FF30BDE8F0810020BDE8F0810120A3
:10424000BDE8F08110B50446052001F027F9D4F847
:10425000BC30D4F8B02005201A6001F01FF9D4F862
:10426000B830D4F8B02004481A6001F01DF9204697
:10427000BDE81040FFF79DBF000040402DE9F04130
:1042800005460E461746FFF794FF00212846FFF724
:1042900086FF002405F15008BC420BDA0F2C315D7B
:1042A00003DC404601F070FB02E02846FFF777FF91
:1042B0000134F1E705F16804204601F03DFA10B938
:1042C00001F0ECF8F8E7204601F036FA58B105F1B4
:1042D000500001F065FB062808D0152803D14FF0E7
:1042E000FF30BDE8F0810020BDE8F0810120BDE88D
:1042F000F08113B5044602A9D72301F8043D012239
:10430000FFF765FF0021012384F82D1084F82C109D
:10431000E364A3642046FFF72BFE02B010BD00004B
:10432000F8B504460E4617461D46002101F008FB6D
:10433000194B3A462360343363603146002304F15D
:10434000500001F0B3F90122294604F1AC0000F05D
:1043500015FC4FF4165104F1680001F0E5F9D4F8AA
:10436000B830D4F8B02020461A60FFF76BFF204623
:10437000FFF7BFFF6FF07F43002123630123204637
:1043800084F82C1084F82D1084F83530E364A3648D
:10439000FFF7EEFD2046F8BD005E010070471FB537
:1043A00000238DF80C108DF80D20009303AA022332
:1043B0003A2101F043F905B05DF804FBF0B585B092
:1043C0000124164604AA02F8011D1F460094234644
:1043D0003A21054601F032F938B900903B463246A1
:1043E0003A21284601F042F900E0204605B0F0BD30
:1043F0000123FFF7E3BFF7B51746002402AA02F82E
:10440000014D05460E46FFF7F3FF48B99DF807201A
:1044100031463A4028468DF80720FFF7C0FF00E0FC
:10442000204603B0F0BDFE222A21FFF7E4BFF7B516
:104430001746002402AA02F8014D05460E46FFF772
:10444000D7FF48B99DF8072031463A4328468DF8F2
:104450000720FFF7A4FF00E0204603B0F0BD0122D3
:104460002A21FFF7E4BF2DE9F341089D04460E46DB
:1044700090461F464DB902AA002302F8013D31467D
:104480002046FFF7B5FF20B905E0FFF7CCFF002875
:10449000F1D0012013E09DF80720314608EA02021E
:1044A0003A4320468DF80720FFF779FF0028F0D126
:1044B0002DB12046FFF7D3FF003018BF012002B016
:1044C000BDE8F08107B50B46417500920E21FC2234
:1044D000FFF7C9FF03B05DF804FB07B54B0001759A
:1044E00003F0FE0300922A21FD22FFF7BCFF03B078
:1044F0005DF804FB70B504461D4601F075F8A56033
:10450000144D154E1549284601F054FA31462846F7
:1045100001F050FAA168204601F076F83B23E360F1
:104520003A23236102232375012200212046FFF74D
:10453000D4FF03236375012200212046FFF7C2FF49
:104540000749284601F036FA3146284601F032FA8A
:10455000204670BDC40B0010C3610100EA68010071
:10456000FB68010038B504460D46083001F064FAD6
:10457000084B0021A36004F11C0001F025F8284637
:1045800065604FF4004100F0CDFA0023236020461F
:1045900038BD00BFF86F01004FF46D43CEF2000349
:1045A000F0B49F689A683B46BAB953F8045B4FF081
:1045B0008054C43725601A4652F8046B251D666086
:1045C0005C68131D6C602C1DBB42F4D14FF46D422E
:1045D0004FF08053CEF200029360103043F8201069
:1045E000F0BC7047036870B500211D6901220446C4
:1045F000A847431C05460ED0216802220E692046BA
:104600000021B04722680646136920462946002249
:104610009847304670BD0646FBE700BF0D4B0E4A7B
:1046200030B4026003F58074002501E0A3420FD08E
:104630001A4652F8041B814208BF42F8045C134634
:1046400053F8042B8242F1D1A34243F8045CEFD12A
:1046500030BC704770140010586B010038B50F4A19
:104660000F4B04460260002503F5807001E0834291
:104670000FD01A4652F8041B8C4208BF42F8045C63
:10468000134653F8042B9442F1D1834243F8045C5F
:10469000EFD1204602F066F8204638BD586B010085
:1046A00070140010074B186800B170474CF20201FB
:1046B0004CF203020448C2F20901C2F2090200F0FE
:1046C000CFBC00BF7415001020160010F0B50F46C7
:1046D00085B03049064605F0DDFF0446002836D097
:1046E00030462D4905F0D6FF60B330462B4905F022
:1046F000D1FF00282FD02A48002406E05D6801344D
:10470000181D35B10134402C29D04568031D002DFA
:10471000F4D131783A2936D002A8314600F0D2FEE1
:1047200002A800F021FFD0B102A800F009FFC8B133
:1047300002A800F00FFF03468BB11A49E01C41F8B4
:10474000243002E0FFF7AEFF012005B0F0BDFFF717
:10475000A9FF2046F9E7FFF7A5FF0220F5E74FF094
:10476000FF30F2E702A800F0E3FE05460028F6D08D
:10477000026802A8966800F0CFFE3A460146284635
:10478000B0470346D8E73046074901AA05F010FFB5
:10479000019BD1E7186B01003C6B0100206B01000D
:1047A0006C14001070140010806B0100022808B512
:1047B0000BDD084BC21E53F82200002143F82210E3
:1047C00028B103685A68904708BD002008BD4FF023
:1047D000FF3008BD701400100228F8B50D461746CA
:1047E00028DC1D490A68002A2DD00FB32C46EE198B
:1047F00014F8011BED43AB19184803F0010500F054
:1048000099FDB44214D035B114F8011B134800F0DF
:1048100091FDB4420CD0254615F8011B0F4800F05D
:1048200089FD61780D486C1C00F084FDB442F2D122
:104830003846F8BD0A4B033853F8200040B10368EE
:104840001B689847F8BDFFF72DFF002FCED1EFE78B
:104850004FF0FF30F8BD00BF741500102016001097
:1048600070140010022810B50C460ADD0A4B0338FC
:1048700053F8200060B103689B68984701460846DA
:1048800010BD064800F050FD01212070084610BD03
:104890004FF0FF31F3E700BF701400102016001036
:1048A000022808B508DD074B033853F8200028B16B
:1048B0000168CA68904708BD012008BD4FF0FF306D
:1048C00008BD00BF70140010022808B508DD074BB2
:1048D000033853F8200028B103681B69984708BDC6
:1048E000002008BD4FF0FF3008BD00BF701400105D
:1048F000022808B504D84FF400504860002008BDD5
:1049000003F040FA092303604FF0FF3008BD00BFF9
:1049100008B540F23053C1F20003186846F68431FE
:10492000C068C0F2010103F099FC012000F012FD03
:1049300008B5012000F00EFD084A13681818EFF3BF
:104940000881884202D2106018467047044B0C223E
:104950001A604FF0FF331846704700BFDC000010AC
:10496000281600100749084A084B9A42BEBF51F862
:10497000040B42F8040BFFF7F8BF054880470548D1
:1049800000470000147D0100C80000100C0B00104F
:10499000F549000029010000FEE7FEE7FEE7FEE71B
:1049A000FEE7FEE7FEE7FEE7FEE7FEE7FEE7FEE7DF
:1049B000FEE7FEE7FEE7FEE7FEE7FEE7FEE7FEE7CF
:1049C000FEE7FEE7FEE7FEE7FEE7FEE7FEE7FEE7BF
:1049D000FEE7FEE7FEE7FEE7FEE7FEE7FEE7FEE7AF
:1049E000FEE7FEE7FEE7FEE7FEE7FEE7FEE7FEE79F
:1049F000FEE700BF4FF44042C4F20F02202330B460
:104A0000C2F8A031D2F8A001800651D44FF440433F
:104A1000C4F20F0300250221C3F804110124C3F8D6
:104A2000A851AA20C3F8AC5155220B25C3F80C415C
:104A30001946C3F88450C3F88C00C3F88C20C3F81F
:104A40008040C3F88C00C3F88C20D1F888004FF464
:104A500040434201C4F20F03F7D50322C3F880207C
:104A6000AA205522C3F88C001946C3F88C20D1F82F
:104A700088004FF4404310F0407FC4F20F03F6D09B
:104A800048F2DE72C0F2284205210020C3F8081166
:104A9000C3F8C420C3F8C8011A6822F4704121F099
:104AA0003A0040F4405242F03A01196030BC70477D
:104AB000D2F8A0114906A9D4D2F8A0114906F7D519
:104AC000A4E700BF38B50C4605461349204600F060
:104AD0008FFCC0B2FF28287014D04FF44043C4F2BA
:104AE0000F03D3F8A821204622F44001C3F8A811EF
:104AF000094900F03FFC4FF44040C4F20800002395
:104B0000036038BD054C06492568E86803F0A6FB3C
:104B1000012000F01FFC00BFA86B01003005001051
:104B2000906B01004FF6C0734FF440420B40C4F24B
:104B300008021360704700BF10B50021044604F05E
:104B40001F0400F047F8012000FA04F010BD00BF78
:104B5000006800F061B800BF31B9836841681A6825
:104B600022EA01021A607047012900D07047836869
:104B70004268196841EA020018607047F8B54B1C9A
:104B80000D46044616461DD021600846FFF7D4FFA7
:104B900025F01F0303F11C0103F1180703F11402B0
:104BA00060602161E7606261A36020463146FFF7E3
:104BB000D3FF2EB928460321BDE8F84000F02CB8F9
:104BC000012E00D0F8BD28460221BDE8F84000F0D3
:104BD00023B800BF431C10B41BD000F16040A0F507
:104BE0001C2404F00F035800032202FA00F201FA19
:104BF00000F14FF440432009C4F2020353F820406F
:104C000024EA020243F8202053F82020114343F8FD
:104C1000201010BC704700BF421C70B430D000F1AF
:104C20006040A0F51C20C1F3800400F01F0504FAC9
:104C300005F542094FF44043C4F202031A3253F817
:104C4000226026EA050643F8226053F822603543C5
:104C500043F82250A4B900F00F046200032505FABE
:104C600002F501FA02F20009103053F8201021EA8F
:104C7000050443F8204053F82040224343F8202005
:104C800070BC70470F4A4FF400431268C4F201032E
:104C900002FB01F102225A6099619A693AB10268F5
:104CA00010689B6900FB01F1B1FBF3F111604FF457
:104CB0000040C4F20100026D092142F001030365C6
:104CC000416070477015001070B50E4605463249B8
:104CD000304600F08DFBC2B2FF2A54D002F1080327
:104CE000012000FA03F04FF44043C4F20F032B49B4
:104CF000D3F8C44051F8221044F040042A712960CE
:104D0000C3F8C440D3F8A8214FF4004422F4405122
:104D1000C3F8A811C4F2010400230222E360626117
:104D2000E16C1F4B0843E0641A684DF68361C4F2DE
:104D30001B31A1FB02101B4A030D44F620612846DB
:104D40001360FFF79FFFA0690FF0A8FB00210FF091
:104D5000FDFB0FF0E7FDA4692979A04208BF0130EF
:104D6000012404FA01F42A684FF400431060C4F2ED
:104D70000103196D304644EA010207491A65BDE88E
:104D8000704000F0F7BA084D08492E68F06803F04B
:104D900065FA012000F0DEFAC06B0100E4000010AB
:104DA000E00000107015001030050010746C010058
:104DB0002DE9F04F00230468C4F2010389B09C423E
:104DC000079000F0E38040F393804FF40043C4F277
:104DD00009039C424FF4404000F0C980C4F209002E
:104DE000844240F08B804FF44043C4F20F03D3F869
:104DF000AC2122F44020C3F8AC01D3F8AC2142F43A
:104E00008020C3F8AC01724B0801D3F800A0BAFBB4
:104E1000F0F300FB13A29BB20693002A00F0A580DA
:104E20000846590801910FF03DFB019A0646069885
:104E30009042C0F09A80069C01250021B046029461
:104E4000049503910020012505906A1CD5B2102D10
:104E50005DD001980FF022FB4FF083410FF076FBFD
:104E60000124814605E0019A0292601CC4B2AC4262
:104E7000EBD050460FF012FB074620460FF00EFB1A
:104E8000834628460FF00AFB014658460FF012FCF5
:104E90004FF07E510FF052FA014648460FF056FB94
:104EA000014638460FF006FC014630460FF044FA42
:104EB00031460FF0FFFB0EF09FFE02F0C9FE0FF02F
:104EC000E7F9414607460FF0DFFC0028CDD041F25C
:104ED0006F213846C3F683210FF0D6FCB8460495FF
:104EE00003940028BFD0019B012102930591BCE7E8
:104EF0004FF44040C4F20000844258D0354D36494A
:104F00002E68F06803F0AAF9012000F023FA019B53
:104F1000069C03F1010B1FFA8BFB5C45CDF804B036
:104F200002D3059900298DD0029C0398049A079911
:104F300040EA021306940C68DBB2227B069942F029
:104F400080022273079C080A2268079C107120685F
:104F5000C9B20170226882F828302368197B01F0F9
:104F60007F00187309B0BDE8F08F1023E5E7C4F2A5
:104F70000F00D0F8AC3123F44032C0F8AC21D0F8A7
:104F8000AC3143F48032C0F8AC213CE74FF44040F0
:104F9000C4F20F00D0F8A83123F44072C0F8A82161
:104FA000D0F8A83143F48072C0F8A8212BE74FF461
:104FB0004043C4F20F03D3F8A82122F0C000C3F885
:104FC000A801D3F8A82142F04000C3F8A8011AE7CD
:104FD000E000001030050010FC6C010038B5013B0A
:104FE000012B0D4628D84C1F032C27D8042A0ED895
:104FF000DFE802F016191C1F03003022082144EAE2
:1050000083030B4300681A43D1B2017338BD1049C2
:10501000104D2868C06803F021F9012000F09AF9CA
:1050200000221146EBE700220821E8E710220821C0
:10503000E5E720220821E2E70749E9E7054C0749AF
:1050400023682A46D86803F009F9012000F082F9A4
:10505000646D010030050010086D0100246D010031
:105060002DE9F8430F460546A1493846164600F09B
:10507000BFF9A0490446304600F0BAF9014620467F
:1050800000F09EF9431C044600F029810023C4F27D
:105090000103984228607CD03CD94FF40042C4F20E
:1050A0000902904200F0DD804FF44041C4F2090152
:1050B000884235D14FF44042C4F20F02D2F8C410F6
:1050C0004FF0010841F00070C2F8C40084F8088075
:1050D0002B6800245C6028464FF41651FFF768FEE9
:1050E0002246434628460821FFF778FF3846804984
:1050F00000F040F930467F4900F03CF9384621463F
:10510000FFF78AFD30462146FFF786FD03226A60DD
:10511000BDE8F8834FF44040C4F20000844268D0F8
:105120004FF0010984F808902B684FF000084FF405
:105130001651C3F804802846FFF73AFE42464B4614
:1051400008212846FFF74AFF3846694900F012F95E
:105150003046684900F00EF938464146FFF75CFDDD
:1051600030464146FFF758FD4046C4F201008442F4
:105170003BD000F2A6804FF44042C4F200029442B9
:1051800063D04FF44040C4F2000084425FD0BDE8D9
:10519000F8834FF44040C4F20F00D0F8C4304FF011
:1051A000010843F01002C0F8C42084F80880296880
:1051B00000244C6028464FF41651FFF7F9FD2246B3
:1051C000434628460821FFF709FF3846484900F0C2
:1051D000D1F83046474900F0CDF838462146FFF770
:1051E0001BFD30462146FFF717FD01206860BDE832
:1051F000F8834FF44042C4F20F02D2F8C4104FF0CB
:10520000010841F00803C2F8C43084F80880286817
:10521000002444604FF416512846FFF7C9FD22468A
:10522000434628460821FFF7D9FE3846304900F0AA
:10523000A1F830462F4900F09DF838462146FFF787
:10524000EBFC30462146FFF7E7FC00246C602A4B5C
:105250002A480124294608221C60BDE8F84304F0CE
:1052600075B94FF44041C4F20F01D1F8C4004FF0BA
:10527000010840F08073C1F8C43084F808802A68BF
:105280000024546028464FF41651FFF791FD224642
:10529000434628460821FFF7A1FE3846144900F08E
:1052A00069F83046134900F065F838462146FFF7A3
:1052B000B3FC30462146FFF7AFFC02216960BDE830
:1052C000F8834FF40041C4F209018C42F5D04FF449
:1052D0004043C4F209039C427FF453AF16E7084DE4
:1052E00008492E68F06802F0B9FF012000F032F89A
:1052F000A46D0100906C01007415001020160010C0
:1053000030050010846D010010B441F2785341F271
:1053100088544068C1F20004C1F20003216043F8E0
:10532000202010BC704700BF0268137DD907FCD550
:10533000107870470268137D03F02000C3B2002B81
:10534000F9D0C9B2117070470368187D00F00100F0
:10535000704700BF10B5044600F00AF820B904B940
:10536000FEE701F023F8FBE700F078F8F7E700BF6D
:1053700000F080B8431C10B5044613D00B68581CCD
:1053800004D110E051F80C3F5A1C0CD09C42F9D1CA
:1053900020468968FFF71EFC20460221BDE8104028
:1053A000FFF73ABC10BD044804490268D06802F017
:1053B00055FF0120FFF7CEFF30050010106E0100F1
:1053C000884208B503D0421C02D0013102D108BD89
:1053D000084608BD044B05491868C06802F03EFF46
:1053E0000120FFF7B7FF00BF30050010246E010059
:1053F00008B5431C0BD00B685A1C04D108E051F8C7
:105400000C3F5A1C04D09842F9D1486808BD08BD29
:10541000044805490268D06802F020FF0120FFF728
:1054200099FF00BF30050010386E010010B504462A
:1054300000F05EFD2046BDE8104000F097BD00BFC3
:1054400010B5044600F06AFD20B100F06FFD04B114
:10545000206010BDFFF7EAFFF7E700BF30B585B069
:105460006D46182420462946ABBE0446204605B0AA
:1054700030BD00BF4EF6F053CEF20003186800F0C6
:105480000100704738B5054600F066FF044600F09D
:1054900063FF001BA842FAD338BD00BF4FF47A73F4
:1054A00003FB00F0FFF7EEBF4FF4105108B5C4F650
:1054B00074110FF04BF80FF00FFABDE80840FFF73A
:1054C000E1BF00BF38B50022026042600B7804469D
:1054D0002F2B01D0204638BD48780028FAD0481C30
:1054E00020604B782F2B12D0A3B18D1C114600E009
:1054F00042B125602A782B46013101352F2AF7D198
:105500000133236001F04EF86060204638BD034649
:105510001146F5E71946F5E700687047406808B599
:1055200020B101F05FF8431E5842584108BD00BF4A
:1055300010B50446FFF7F2FF00B1606810BD00BF70
:10554000406808B528B101F04DF8D0F1010038BF2E
:10555000002008BD10B50446FFF7F2FF10B16068E7
:1055600000B1043810BD00BF4068003018BF0120F2
:10557000704700BF4FF0FF30704700BF00207047FA
:105580004FF0FF30704700BF034B10B50446036077
:1055900000F0C2FF204610BD886E010010B5044621
:1055A000FFF7F2FF204601F0DDF8204610BD00BFF6
:1055B00010B50122044600F0E5FF024B20462360AF
:1055C00010BD00BF886E010000220160426070477C
:1055D00008B5036801460BB1984708BD406810B193
:1055E0008A690831904708BD10B5044600F04EFAAC
:1055F00048F2A06241F28C53C0F20102C1F20003F2
:1056000062601C60204610BD10B54160044600F089
:10561000AFFA41F28C53C1F200031C6010BD00BF11
:1056200038B5054D04462B68834203D0416800F02D
:105630009FFA2C6038BD00BF8C150010F0B583B008
:105640001C4605460F461646FFF7EAFF9DF8203038
:10565000394683F00100009032462846234600F088
:105660008FFB201A18BF012003B0F0BDF0B583B046
:105670001C4605460F461646FFF7D2FF9DF8203020
:10568000394683F00100009032462846234600F058
:105690007DFA201A18BF012003B0F0BD183000F0C9
:1056A0004FB800BF183000F049B800BF38B5044605
:1056B0001D4600F1180000F017F82046294600F0BA
:1056C0003FF946F6D863C0F2010303F108023C3308
:1056D00084E80C00204638BDC1EBC10100EB81001D
:1056E0000830FFF775BF00BF70B504460D4600F1E6
:1056F000080000211646FFF767FF002104F124008F
:10570000FFF762FF204629463246FFF7A9FC4FF417
:10571000165345F2D96120462364C0F200012246A7
:10572000FFF7F2FD204670BD38B505460C46FFF781
:105730003FFB2C6438BD00BFFFF706BEFFF7F4BD8A
:1057400010B50C46FFF7F6FD204610BDF0B5044637
:105750000546104883B045F8040B4FF0FF36284645
:10576000009600F00DFD44F2402000260827C0F20C
:105770000F003246394633462061A7602846E6606E
:1057800000F020FC2846216900F050FC204603B0C0
:10579000F0BD00BF506F010070B5094D04462B6885
:1057A00083420BD0061D8168C2680023304600F09A
:1057B00009FC3046216900F039FC2C6070BD00BF47
:1057C0009015001038B504460D46FFF7E5FF201D83
:1057D0002946BDE8384000F07FBD00BF41F290533C
:1057E000C1F20003002201611A60FFF7D5BF00BFBC
:1057F000002070472DE9F0418E18B1420F46054652
:1058000030D003688A1B0C46D2435B6A14F8011B34
:1058100002F00108984701301ED0A6421FD0B8F10F
:10582000000F09D0296828464A6A14F8011B9047DE
:10583000013011D0A64212D0286814F8011B436A27
:10584000284698470130284606D02A6814F8011BDC
:10585000536A98470130EDD1E01BBDE8F081F01BA1
:10586000BDE8F0810020BDE8F08100BF2DE9F041E6
:105870008E18B1420F46054631D003688A1BD143CA
:105880009C6A01F00108A047431C3C4624D03C46DA
:1058900004F8010BA6421CD0B8F1000F06D02B680B
:1058A00028469A6A9047431C0FD115E0296828467C
:1058B0008B6A98470246511C28460DD004F8012BEC
:1058C00029688B6A9847421C06D004F8010BA6424F
:1058D000ECD1F01BBDE8F081E01BBDE8F0810020B9
:1058E000BDE8F0810020704700207047002070471D
:1058F0000020704746F66873C0F2010303F1080206
:105900003C3310B5044680E80C00406902F082FA8E
:10591000204600F069FE204610BD00BFA0F1040043
:10592000FFF7E8BF10B50446FFF7E4FF204600F09C
:1059300019FF204610BD00BFA0F10400FFF7F2BF21
:1059400010B584B0044600F075FE46F66873C0F2E8
:10595000010303F1080046F680313C3384E8090076
:105960002246C0F2010101A804F0FCFD46F6BC711C
:10597000C0F2010101A802F069FC0021606104F09D
:10598000F7FC204604B010BD38B5044640690D460A
:1059900002F002FB61692846BDE8384002F072BCA3
:1059A00010B50446406902F0F7FA6069BDE810409E
:1059B00002F004BB0EB430B582B005AB53F8045B03
:1059C00004464069019302F0E7FA60692946019AAA
:1059D00009F0CEF802B0BDE8304003B0704700BF18
:1059E000034B10B50446036000F03CF8204610BDA0
:1059F000F86F01004368016910B5C918044600F04A
:105A000029F804F11400BDE81040FFF7E1BD00BF24
:105A1000054B10B50446036000F024F8204600F062
:105A2000A1FE204610BD00BFF86F010008B5036855
:105A30009968884708BD00BF054B10B50446036050
:105A400045F62D20C0F2000000F0F2FC204610BD0B
:105A5000187001000246043000F018BD043000F058
:105A600037BD00BF034B10B504460360FFF7F6FFD8
:105A7000204610BD1870010010B50446FFF7F2FF74
:105A8000204600F06FFE204610BD00BFF8B50D4661
:105A90000646324928461446FFF7AAFC3049074615
:105AA0002046FFF7A5FC01463846FFF789FC421C5B
:105AB0000346306049D04FF44042C4F205029042A0
:105AC00038D00020C4F20A0083424FF4404228D06C
:105AD000C4F20102934219D0224A42F6635011687F
