:100000000080001005230000392300003B2300007E
:100010003D2300003F2300004123000000000000BA
:10002000000000000000000000000000432300006A
:100030004523000000000000472300004923000082
:100040004D2300004F2300005123000053230000E4
:100050005523000057230000592300005B230000B4
:100060005D2300005F230000612300006323000084
:100070006523000067230000692300006B23000054
:100080006D2300006F230000712300007323000024
:100090007523000077230000792300007B230000F4
:1000A0007D2300007F2300008123000083230000C4
:1000B0008523000087230000892300008B23000094
:1000C0008D2300008F2300009123000010B5054C04
:1000D000237833B9044B13B10448AFF300800123F4
:1000E000237010BDA80A00100000000008340100B1
:1000F000084B10B51BB108490848AFF30080084809
:10010000036803B910BD074B002BFBD0BDE81040BE
:10011000184700BF00000000AC0A001008340100BE
:10012000A80A001000000000154B002B08BF134B5D
:100130009D46A3F5803A00218B460F461348144A8A
:10014000121A07F0D7FA0F4B002B00D098470E4B2E
:10015000002B00D098470020002104000D000D481E
:10016000002802D00C48AFF3008006F04BFE2000C0
:10017000290000F0DBFE02F0EDFC00BF00000800EB
:10018000008000100000000000000000A80A00101D
:10019000680F001000000000000000002DE9FF4182
:1001A0004FF47F0180461E4801F0C8FD1C4801F055
:1001B00070FD402400274025C4F180062B462A46C6
:1001C00021461748039702958DE8500001F004FB83
:1001D00003970295019600962B462A462146104821
:1001E00001F0FAFA0F2C09D84FF47F03019300971E
:1001F000072304220B490A4801F0C6FB013CDAD16F
:10020000404610F0F9FC02F037FD2146044801F0A9
:1002100095FD034804B0BDE8F04101F03ABD00BFD0
:10022000440C0010C022010043691A6843681A4256
:1002300014BF01200020704773B50B4C00254FF40C
:100240007F0620468DE8600005230222074901F061
:100250009BFB8DE86000062302220549204601F041
:1002600093FB02B070BD00BF440C0010CC22010013
:10027000D922010073B5174C00254FF47F062046A4
:100280008DE8600005230222134901F07DFB204622
:100290008DE8600006230222104901F075FB20461C
:1002A0008DE86000072302220D4901F06DFB204616
:1002B0008DE86000082302220A4901F065FB8DE801
:1002C0006000092302220849204601F05DFB02B0CC
:1002D00070BD00BF440C0010E9220100F2220100B1
:1002E000FF220100092301001523010084B073B52A
:1002F00006AC84E80F00002515484FF47F060C9CDF
:1003000001F0C7FC01230222124911488DE8600068
:1003100001F03AFB8DE86000032302220E490C48ED
:1003200001F032FB14B9FFF787FF0BE0012C07D077
:10033000074801F0AEFC02B0BDE8704004B0704761
:10034000FFF798FF06A8FFF76FFF0028EAD1EFE755
:10035000440C0010262301003623010084B02DE94F
:10036000F04F00273D4689B012AC84E80F0018A872
:10037000FFF75AFF064612A8FFF756FF804624A84B
:10038000FFF752FF1EAC01462046FFF74DFFA5B90F
:10039000B8FA88F56D09002900F0E980784BDFF89C
:1003A0000CA20793774BDFF808920693764BDFF8A1
:1003B00004820593DFF800B262E0012D2ED1B8F17E
:1003C000000F03D0351C18BF012500E00225002FC7
:1003D00000F0B280012F00F0B680022F00F0B8804C
:1003E00050B1674BDFF8C4A10793664BDFF8C091AB
:1003F0000693DFF8C081B8E0DFF8B0A1DFF8B09174
:10040000DFF8B0815E4B032F07935E4BDFF8ACB192
:1004100006935E4B059333D1002731E0022D09D1BD
:10042000002E08BF0125B8F1000F08BF032599B9B8
:10043000029107E0032D13D1002E08BF022589B9D0
:100440000123029322AB93E803008DE8030094E8B4
:100450000F00FFF74BFF8AE7494B07934C4B04E033
:10046000474B00E04B4B0793464B0693DFF83CA10C
:10047000DFF83C91DFF83C81434BDFF840B1059356
:1004800000244FF47F068DE85000012302224249E8
:10049000424801F079FA8DE85000032302224049D6
:1004A0003E4801F071FA8DE85000042302223D49D4
:1004B0003A4801F069FA8DE85000052302223A49D2
:1004C000364801F061FA224659468DE8500007236C
:1004D000324801F059FA224605998DE85000082368
:1004E0002E4801F051FA224641468DE8500009237A
:1004F0002A4801F049FA224649468DE850000A236D
:10050000264801F041FA224651468DE850000B235F
:10051000224801F039FA224606998DE850000C2352
:100520001E4801F031FA8DE850000D23224607994C
:100530001A4801F029FA1AE7DFF870A0DFF8709086
:10054000DFF87C800AE0DFF864A0DFF8789003E051
:10055000DFF874A0DFF85890DFF8588008B9013749
:1005600050E7074B0793074B0693084B85E70B486B
:1005700001F08FFB384609B0BDE8F04F04B070477A
:1005800065230100702301007F23010096230100F1
:10059000AD230100BC23010026230100440C001000
:1005A000EA230100F5230100022401004223010097
:1005B0004D2301005A2301008E230100A5230100D1
:1005C000DF230100D2230100C72301002DE9F347F7
:1005D000174605460E46194CDDF828800093134651
:1005E0000A460146204601F0CDF8404602F044FBA1
:1005F000134BA7F1020A3246294600932046534680
:1006000001F0C0F84FF00009404602F035FB5346B8
:10061000324629462046CDF8009001F0B3F8404616
:1006200002F02AFB3B46324629462046CDF8289068
:1006300002B0BDE8F04701F0A5B800BF440C0010BF
:10064000BFBFBF00F7B5154D06460C460095EAB191
:10065000FF23052201310130B71EFFF7B7FFE11E6E
:100660004FF47F030322384603340095FFF7AEFFB3
:100670004FF47F430422214638460095FFF7A6FF3A
:100680000095074B04222146B01C02E04FF47F0383
:100690000522FFF79BFF03B0F0BD00BF0AD7233C44
:1006A000BFBFBF00F7B50746514E4FF47F0500248A
:1006B000304601F0EEFA8DE8300030460723022282
:1006C0004C4901F061F98DE83000304609230222DF
:1006D000494901F059F90A23012248498DE83000BF
:1006E000304601F051F93846454C10F085FA02F0D9
:1006F000C3FA452108460094FF230A22FFF766FF4C
:100700002B4600940F2237213820FFF75FFF00941B
:100710004FF47F430A224A213B20FFF757FF009402
:10072000FF230F2263214F20FFF750FF2B46009439
:10073000142218212920FFF749FF324F00944FF46B
:100740007F430A2254213120FFF740FF45213B46D9
:10075000084600940522FFF739FF5E210846009401
:10076000FF230522FFF732FF0094FF230A224521D1
:100770007220FFF72BFF2B4600940F2237210E200B
:10078000FFF724FF00944FF47F430A224A212220DE
:10079000FFF71CFF0094FF230F2263216D20FFF75A
:1007A00015FF2B460094142218210120FFF70EFF9D
:1007B00000944FF47F430A2254211D20FFF706FFC7
:1007C0003B460094052245217720FFF7FFFEFF23DB
:1007D00005225E2100946820FFF7F8FE4FF07E505E
:1007E00002F04AFA304603B0BDE8F04001F051BAD9
:1007F000440C0010262301001024010015230100E1
:100800000AD7A33CBFBFBF007FB50246084903A873
:1008100007F0C8FB4FF47F430193002300930F229E
:1008200003A9044801F0B0F807B05DF804FB00BF6D
:100830003A280100440C001030B587B002460E4D36
:100840000E4903A807F0AEFB00244FF47F03019389
:100850002246234628460094094901F095F84FF4B2
:100860007F43019300942346032203A9284601F005
:100870008BF807B030BD00BF440C00103A280100CF
:10088000202401007FB50268084903A807F08AFB0D
:1008900000224FF47F438DE80C0003A90223044893
:1008A00001F072F807B05DF804FB00BF23240100DB
:1008B000440C001030B589B030B90446154D0FCD49
:1008C0000FC42B682360FFDE03680A2B08D00446A0
:1008D000104A142505FB03250FCD0FC42B68236098
:1008E00000F0B6FD046800221CB12368A4681A77E2
:1008F000FAE701A800F056FE079B1B681BB11A68B7
:100900009B681472FAE7012009B0BDE8304000F09E
:1009100043BE00BF2C2401000120704710B50C4CD1
:100920000246206801B110BD90420FD0531E042B27
:100930000AD9052A8CBF0623012323600549062313
:10094000054802F0A3FB00E02260206810BD00BF54
:10095000C80A0010F4240100A40B0010037C70B539
:10096000A3B1056882686E1E4468C36803C98642E5
:100970000ED82A44013282420AD38C4208D8E018A9
:100980000130884234BF0020012070BD184670BD80
:10099000002070BD037F70B56BB10B7D5BB1056846
:1009A0000B6844689D424A68CE68086909D333449D
:1009B0009D4202D905E0184670BD94420AD3012336
:1009C00002E0944206D300230244944294BF1846A6
:1009D000002070BD002070BD037F2DE9F041154659
:1009E00073B30B7A63B344680A680068D1F8048073
:1009F000101A0FF08DFC00224FF0804304F0B0F984
:100A00000646C4EB08000F460FF082FC00224FF0B0
:100A1000804304F0A5F902460B46304639460FF0F4
:100A20003BFB04F035FB0FF0E1FF014628464FF099
:100A3000010410F0EBFA00B90446E0B2BDE8F08121
:100A40001846BDE8F08100002DE9F04786B000F0BF
:100A5000FFFC1E4B0568D3F80090DFF8748095B357
:100A60002C68237F6BB30026B2464E4529D0314611
:100A700001A800F0DDF8214601A8FFF76FFF074647
:100A8000A0B1304600F0F0F894E803000022FFF730
:100A9000D9FD012202990198FFF7D4FDD8F80C3056
:100AA000D8F8042084F81CA01A6008E06168029B52
:100AB000994204DB02462068FFF7C4FD2777013620
:100AC000D3E7AD68CBE706B0BDE8F087C80A0010F1
:100AD000500D0010014B00221A607047C40A00102C
:100AE000014B1868704700BFC40A00102DE9F04F91
:100AF0008BB0834603A800F055FD00F0A9FC074623
:100B0000099B04681D68DFF85C80DFF85CA04FF08B
:100B1000000925B32B68FCB126681946DBF81020C4
:100B200030460193FFF758FF019B98B1D8F8002099
:100B300083F808900132C8F80020DAF80C30DAF8AF
:100B4000042086F81C9096E803001A600022FFF744
:100B500079FD01E0A468DEE73C68AD68D9E70BB039
:100B6000BDE8F08F680D0010080D0010F0B589B0D9
:100B700001A800F017FD00F06BFC154F0468154E3E
:100B80001CB3256801A92846FFF704FFD8B195E8F2
:100B9000030000222A77FFF755FDFB687A681A6088
:100BA0003368002B08DA00F0E3FD0B490B4809B06D
:100BB000BDE8F04002F06ABA0949084802F066FA56
:100BC0003368013B3360A468DAE709B0F0BD00BFC9
:100BD000500D00106C0D001031250100A40B001009
:100BE0003D25010030B58DB005A800F0DBFC9DF877
:100BF0002830012B12D10C4B1B68002B0EDB0B4B4A
:100C000000241D68AC4209D02146684600F010F867
:100C10009DF81030012B03D00134F3E7012000E0F0
:100C200000200DB030BD00BF6C0D0010C80A0010D0
:100C3000052970B5064606DD6FF00B020749084826
:100C400002F024FAFEE70546064B142404FB0134A7
:100C50000FCC0FC5236830462B6070BD49250100BD
:100C6000440C0010CC0A001005282DE9F74306DDDE
:100C70006FF00C021249134802F008FAFEE7142341
:100C80005843114A00251658131834465F68DFF898
:100C90003C901D7406F10A08A31B59F81330214635
:100CA000FB1A013300930195631C3A460548023450
:100CB00000F0FFFD4445EFD103B0BDE8F08300BF75
:100CC00049250100440C0010CC0A0010440B001010
:100CD0002DE9F74F144FDFF8589000257B191A7C47
:100CE000012A05D01435782DF8D103B0BDE8F08F76
:100CF000EE59D3F80480344606F10A0A4FF47F4BCC
:100D0000A31B59F813302146C3EB080301330093AA
:100D1000CDF804B0631C42460448023400F0C9FD1B
:100D20005445EDD1DEE700BFCC0A0010440C0010A2
:100D3000440B001007B5064B7C228DE80C007F2386
:100D40001A460021034800F0B4FD03B05DF804FB2F
:100D500000AACC00440C00100628F8B506DD6FF0A0
:100D60000A021E491E4802F091F9FEE700221546CC
:100D70001C4B7B264E270A244FF0010E90420BDDC0
:100D800097FBF0F1514319311E6043F8041C5C607D
:100D90009C6083F80CE000E01D730132062A03F129
:100DA0001403EBD1012006F02FFD0F4E00240A257D
:100DB000032706F033FD90FBF5F303FB150043001A
:100DC00093FBF7F3033346F824300134052CF0D1BC
:100DD000FFF77EFFBDE8F840FFF7ACBF49250100F3
:100DE000440C0010D00A0010440B001010B504464B
:100DF0000C2006F0A3F8002204604260826010BD5F
:100E000008B5102006F09AF8002202604260826065
:100E1000C26008BD10B504460846FFF7E7FFE36867
:100E200022680133E3601AB92060A060606010BDE1
:100E300082605060206010BD38B5856804460DB9E9
:100E4000002038BD43686A689D42036808BF42605D
:100E50009D42AB6808BF036003B15A606A6802B183
:100E60009360AB68A36011B1286806F06FF828465C
:100E700006F06CF8E368013BE360A368002BDFD069
:100E8000186838BD036813B1836018687047184646
:100E90007047836823B19B6883600BB11868704703
:100EA000184670474FF0FF307047000010B50446F9
:100EB000034B03603433436002F088F8204610BDD2
:100EC000B02B0100A0F10400F0E700BF10B504460C
:100ED000064B503040F8503C343340F84C3CFFF760
:100EE000E5FF204602F072F8204610BD742501008F
:100EF000A0F10400EAE700BF10B50446FFF7E6FFE3
:100F0000204602F0F7FC204610BDA0F10400F3E7F4
:100F100008B5C9B200F094FD002008BD10B5044624
:100F2000012201F0C1FA204610BD00002DE9F04F6A
:100F3000002197B0A14801F0A1FA0021A04801F0DA
:100F40009DFAA04F0021A04801F098FA00219F4887
:100F500001F094FA3B697A689D4D1A609D4ADFF86A
:100F60005CA213695168904619609B4B99461969B8
:100F7000586808606868E9680860EB686A68DFF8C4
:100F800098B21A60DBF80420DBF81030934E1A6038
:100F9000934B0022934CDFF884E21A600123336004
:100FA000BEE80F000FC4DEF80030032044F810390B
:100FB000FFF778FBDFF810C20DF1380EBCE80F0028
:100FC000AEE80F009CE803008EE80300DFF8FCC1E8
:100FD0000DF1200EBCE80F00AEE80F009CE8030006
:100FE0008EE80300DFF8D8C10DF1080EBCE80F0051
:100FF000AEE80F009CE803008EE803007A4B93E80C
:1010000003008DE803009AE80F00FFF7A7F9774B7C
:101010000128186015960AD006D302280CD1D9F8F9
:101020000C30D9F8042006E0FB687A6803E0D8F8B1
:101030000C30D8F804201A6000F056FB0021042080
:10104000FFF76CFCFFF788FE00F098F9FFF740FE11
:10105000002686B9654B1B683BB1022B0BD1E368B8
:10106000013BE360A368013B04E0E3680133E36014
:10107000A3680133A3606A682B691A60A06800F056
:10108000BFF9E06800F0D0F900F064FAFF2000F04A
:10109000E5FAFFF74FFE524B1868FFF7B5FB159BBB
:1010A0001868FFF7C9FB4F48FFF7ECFBFFF718FD87
:1010B000434A1490536952681868DAF814301042A1
:1010C0001968DAF8043003EA01033F494E694968B8
:1010D000366806EA010618D19BB94549454801F032
:1010E000D5FF4048FFF7E6FB4349424801F0CEFFF9
:1010F0004FF07C5001F0C0FDFFF774FD0028BAD01E
:101100004AE000F01FFB3D4903E02BB900F004FB6F
:101110003B49384801F0BAFF2EB900F051FA39497D
:10112000344801F0B3FF00F065FA3749314801F067
:10113000ADFF2C48FFF71AFD2A48FFF785FC294828
:10114000FFF7D4FCFFF7C4FDFFF74CFD064618BBC4
:10115000244B149A5B689A4201D2012613E02B4972
:10116000244801F093FF304600F016FAFFF7D4FB55
:101170000028F2D01E491F4801F088FF1948FFF7E8
:1011800099FBFFF7A7FC224B1A695B681360214BA0
:101190001A695B6813605CE7DBF80C30DBF804204D
:1011A00005201A601A4B1A695B681360194B1A699B
:1011B0005B681360FEF7F2FFDFE600BF000C001073
:1011C000880D0010580B0010A00D0010700D0010BD
:1011D000200D0010700B0010880B00106C0D00101B
:1011E000680D0010180C0010100C0010A00B00105F
:1011F000B0250100A40B0010C7250100D82501006F
:10120000E8250100F7250100012601001C26010048
:10121000080D0010500D0010380D0010442601007C
:1012200010B50446FFF742FE204602F063FB20465D
:1012300010BDA0F10400F3E738B52B4D2B4C002373
:101240002B4A2C49284601F0EFFD28462A4D22461C
:101250002A4902F0CDFA2A4B2A4A2B49284600F0A7
:1012600033FE22462949284602F0C2FA00222849C4
:10127000284801F019F900222749284801F014F9FB
:1012800000222749274801F00FF900222649274864
:1012900001F00AF926492748FFF740FE264927486A
:1012A000FFF73CFE26492748FFF738FE2649274826
:1012B000FFF734FE26492748FFF730FE264D274921
:1012C0002748FFF72BFE27492748FFF727FE274B24
:1012D000274A2849284600F0F3FC22462846BDE864
:1012E0003840254902F084BAA40B0010C800001051
:1012F00003C0092002C009202C0C0010AD0E000014
:10130000A08601000BC009200AC009206F1D000043
:1013100045C00920000C001044C00920880D0010B1
:1013200043C00920A00D001042C00920700D00101C
:101330000FC00920580B001010C00920700B0010BE
:1013400017C00920880B00103EC00920080D0010AE
:101350003FC00920500D0010440C001041C009206E
:10136000200D001040C00920380D001012C00920C7
:1013700001C0092000C00920CD0E000008B5FFF70C
:101380003FFD014B186008BDB80D001010B52020BE
:1013900005F0D4FD002343608361044606F03EFA65
:1013A000154B0340002BBEBF03F1FF3363F07F03F7
:1013B000013318460EF0BCFFC4E9020106F02EFA14
:1013C0000D4B0340002BBEBF03F1FF3363F07F03DF
:1013D000013318460EF0ACFFC4E90401D4E9020160
:1013E0000FF0BCFA01232377044B20602146BDE8AF
:1013F00010401868FFF70EBD7F000080B80D001088
:1014000008B5431E072B06D96FF0020203490448B2
:1014100001F03CFEFEE7034B186008BD49250100C2
:10142000440C0010D400001008B5431E632B06D9ED
:101430006FF003020349044801F028FEFEE7034B66
:10144000186008BD49250100440C0010CC000010B4
:10145000014B1868704700BFB80D001037B504463F
:101460000D4600F10801D1E900010FF077FA636839
:1014700001460093019523680022024800F0EAF932
:1014800003B030BD440C0010304B2DE9F74F304E07
:101490001B68192530685D43FFF7F4FC0446C82734
:1014A000002C50D0217F39B92046FFF7D7FF01210A
:1014B0003068FFF7C1FC44E000212046FFF7CEFF73
:1014C000D4E902ABD4E9040152465B460EF0E2FDDA
:1014D0008046284689460EF02BFF02460B464046C2
:1014E00049460FF0B5F8A369CDE9000193FBF5F08B
:1014F00005FB10300EF01CFF8046894697FBF5F087
:101500000EF016FF42464B460EF078FF0FF026FA1B
:10151000424660604B46DDE900010EF06FFF5B461E
:1015200052460EF0B9FD0FF019FA4FF47F0120601A
:101530002046FFF793FFA36930680133A361FFF7EB
:10154000A8FC0446ACE703B0BDE8F08FD40000105F
:10155000B80D00100C4A08B51368013313600B4A2C
:10156000116893FBF1F201FB123202B143B9084B4F
:101570001B782BB1FFF70AFF064A1368013313608B
:10158000BDE80840FFF780BFBC0D0010CC00001084
:10159000D0000010C00D0010014B1870704700BF44
:1015A000D000001070B504460646044D0FCD0FC4A0
:1015B00095E8070084E80700304670BDC40D0010B0
:1015C00008B50C2005F0BAFC0146094B98685A682A
:1015D000121A4A60DA68022092FBF0F01A6802449C
:1015E0000A60012298690A72BDE80840FFF712BC40
:1015F000C40D0010F7B5174CFF26A069FFF742FC99
:10160000002528B3077A03682FB9019740686168FD
:10161000A268009008E04268D11E002941600DDAFE
:101620006168A268019500958A1A0B48194600F076
:1016300011F90121A069FFF7FFFBE2E78DE8420005
:101640000548194600F006F9A069FFF722FCD8E723
:1016500003B0F0BDC40D0010440C0010F7B50646F1
:101660001F4C019020691F4DE36894E80600104468
:1016700000900B44284600F01CF962682846131FAE
:101680000093236801961946053200F012F962684A
:101690002368A2F10A0105330091284619460196F4
:1016A000053200F006F962682368111F0A330091C1
:1016B000284619460196053200F0FBF82768626853
:1016C000E3682069A16810443B4400905B1A521AF9
:1016D00001963944284600F0ECF803B0F0BD00BF95
:1016E000C40D0010440C001010B50A4C3C226423B9
:1016F00084E80C0001232375FFF782FB03230A22F1
:10170000A061A360E2602361FF20BDE81040FFF705
:10171000A5BF00BFC40D001010B5094C2368A26816
:101720009B1A002B0BDB0020FFF798FF2368A268B1
:10173000FF209B1A2360BDE81040FFF78FBF10BD4C
:10174000C40D001010B5094C2268A3681344752B12
:101750000BDC0020FFF782FF2268A368FF20134400
:101760002360BDE81040FFF779BF10BDC40D001025
:1017700008B50020FFF772FF014B00221A7508BD63
:10178000C40D001030B585B0089CCC258DF80450F0
:101790008DF806100D128DF8082011121A128DF80E
:1017A0000920C4F385228DF807108DF80A30C4F3A0
:1017B000C441D310C4F3C40403EBC10304EB4214CB
:1017C00001A909228DF805508DF80B308DF80C40D9
:1017D00000F0CDF905B030BDF0B585B00A9F0B9E85
:1017E0004FF0C90E0D9C0C9D8DF800E08DF8021095
:1017F0004FEA212E8DF8042011128DF806301A12AE
:101800003B128DF8073033128DF805208DF8093022
:10181000C4F385222B128DF803108DF80B30C4F31E
:10182000C441D310C4F3C40403EBC10304EB42145A
:1018300069460F228DF801E08DF808708DF80A6076
:101840008DF80C508DF80D308DF80E4000F08FF9AA
:1018500005B0F0BD7FB5099C089DD2268DF80460C7
:101860008DF806100E128DF8082011121A128DF83C
:1018700009208DF80A30C4F385222B128DF8071049
:101880008DF80B30C4F3C441D310C4F3C40403EB8C
:10189000C10304EB421401A90B228DF805608DF8F9
:1018A0000C508DF80D308DF80E4000F060F904B04A
:1018B00070BD7FB5099C089DCE268DF804608DF81B
:1018C00006100E128DF8082011121A128DF8092038
:1018D0008DF80A30C4F385222B128DF807108DF88D
:1018E0000B30C4F3C441D310C4F3C40403EBC103ED
:1018F00004EB421401A90B228DF805608DF80C5001
:101900008DF80D308DF80E4000F031F904B070BD47
:1019100007B57D238DF8043000238DF80530802332
:101920008DF8061080F834108363C363042912D83D
:10193000DFE801F00511090D0300062300E007238D
:101940000364082309E0082303640C2305E00C2347
:101950000364102301E0082303644364026C836C76
:10196000416C5343802292FBF3F380F83630C36C12
:101970004B4392FBF3F201A980F83720032200F0D9
:10198000F6F803B05DF804FB2DE9F0470E46ADF51F
:101990007A7D002407462146914601A84FF47972CA
:1019A0009A46DDF80C54009405F0A4FE304606F08B
:1019B0006FFC9DF8081480463846FFF7A9FFE42322
:1019C0000522694638468DF800308DF801408DF8C3
:1019D00002A08DF803408DF8049000F0C8F8C5F31C
:1019E00085227F23C5F3C4418DF80030C5F3C405BB
:1019F000D31003EBC10305EB4215694603223846B9
:101A00008DF801308DF8025000F0B1F806238DF802
:101A10000030013E444505DA16F8013F01340DF867
:101A20000430F7E70DEB080300225A70694608F10D
:101A30000202384600F0F2F80DF57A7DBDE8F08735
:101A400013B500231F2904460093ADF804302AD8AB
:101A50000A290DD190F82D20E4210132D2B280F86C
:101A60002C3080F82D208DF800108DF801300AE020
:101A70000D2913D1E4228DF8002090F82D2080F854
:101A80002C308DF801308DF80220694605228DF842
:101A900003308DF8043000F06AF814E00C2912D1FC
:101AA00000F0F7F80FE0FE228DF800208DF802100C
:101AB000032269468DF8013000F059F894F82C3073
:101AC000013384F82C3094F82C2094F836309A4264
:101AD00018D194F82D3000220133DBB2E42184F8D0
:101AE0002C208DF800108DF801208DF803208DF842
:101AF000042084F82D300522694620468DF80230F6
:101B000000F035F894F82D2094F837309A4214D12B
:101B10000023E42284F82D308DF801308DF8023056
:101B20008DF8033094F82C308DF80020694605229A
:101B300020468DF8043000F01AF802B010BD08B548
:101B4000503001F08DFABDE808404FF4FA7001F012
:101B500081B838B500F1680500F15004284601F05D
:101B6000A9F918B1204601F087FAF7E738BD2DE949
:101B7000F04105460E461746FFF7EBFFFF212846CA
:101B8000FFF7DDFF002405F15008BC420BDA0F2CF3
:101B9000315D03DC404601F063FA02E02846FFF7BE
:101BA000CEFF0134F1E705F16804204601F082F927
:101BB00010B901F05BF8F8E7204601F07BF958B165
:101BC00005F1500001F058FA062808D0152803D175
:101BD0004FF0FF30BDE8F0810020BDE8F08101202A
:101BE000BDE8F08110B50446052001F03FF8D4F8B7
:101BF000BC30D4F8B02005201A6001F037F8D4F8D2
:101C0000B830D4F8B02004481A6001F035F8204606
:101C1000BDE81040FFF79DBF000040402DE9F041B6
:101C200005460E461746FFF794FF00212846FFF7AA
:101C300086FF002405F15008BC420BDA0F2C315D01
:101C400003DC404601F00CFA02E02846FFF777FF7C
:101C50000134F1E705F16804204601F02BF910B9D1
:101C600001F004F8F8E7204601F024F958B105F135
:101C7000500001F001FA062808D0152803D14FF0D2
:101C8000FF30BDE8F0810020BDE8F0810120BDE813
:101C9000F08113B5044602A9D72301F8043D0122BF
:101CA000FFF765FF0021012384F82D1084F82C1024
:101CB000E364A3642046FFF72BFE02B010BD0000D2
:101CC000F8B504460E4617461D46002101F0A4F95A
:101CD000194B3A462360343363603146002304F1E4
:101CE000500001F0A1F80122294604F1AC0000F0F7
:101CF000DBFB4FF4165104F1680001F0D3F8D4F87F
:101D0000B830D4F8B02020461A60FFF76BFF2046A9
:101D1000FFF7BFFF6FF07F430021236301232046BD
:101D200084F82C1084F82D1084F83530E364A36413
:101D3000FFF7EEFD2046F8BD7425010013B5C1F391
:101D40008522C1F3C4446E23C1F3C4018DF804306D
:101D500001EB4211D31003EBC4038DF806100322EC
:101D600001A98DF80530FFF702FF02B010BD7047E2
:101D70001FB500238DF80C108DF80D20009303AAD9
:101D800002233A2101F018F805B05DF804FBF0B524
:101D900085B00124164604AA02F8011D1F460094CE
:101DA00023463A21054601F007F838B900903B4632
:101DB00032463A21284601F017F800E0204605B0E7
:101DC000F0BD0123FFF7E3BFF7B51746002402AAD1
:101DD00002F8014D05460E46FFF7F3FF48B99DF89E
:101DE000072031463A4028468DF80720FFF7C0FF0C
:101DF00000E0204603B0F0BDFE222A21FFF7E4BF39
:101E0000F7B51746002402AA02F8014D05460E4612
:101E1000FFF7D7FF48B99DF8072031463A432846D7
:101E20008DF80720FFF7A4FF00E0204603B0F0BDC7
:101E300001222A21FFF7E4BF2DE9F341089D044662
:101E40000E4690461F464DB902AA002302F8013DF6
:101E500031462046FFF7B5FF20B905E0FFF7CCFF7C
:101E60000028F1D0012013E09DF80720314608EA50
:101E700002023A4320468DF80720FFF779FF002839
:101E8000F0D12DB12046FFF7D3FF003018BF01205D
:101E900002B0BDE8F08107B50B46417500920E21F6
:101EA000FC22FFF7C9FF03B05DF804FB07B54B0048
:101EB000017503F0FE0300922A21FD22FFF7BCFF0B
:101EC00003B05DF804FB000070B504461D4600F049
:101ED00049FFA560144D154E1549284601F0D6F866
:101EE0003146284601F0D2F8A168204600F04AFFAA
:101EF0003B23E3603A23236102232375012200215F
:101F00002046FFF7D3FF03236375012200212046FB
:101F1000FFF7C1FF0749284601F0B8F831462846C7
:101F200001F0B4F8204670BDA40B00101D2701007D
:101F30000C270100202701004FF46D43CEF200036F
:101F4000F0B49F689A683B46BAB953F8045B4FF007
:101F50008054C43725601A4652F8046B251D66600C
:101F60005C68131D6C602C1DBB42F4D14FF46D42B4
:101F70004FF08053CEF200029360103043F82010EF
:101F8000F0BC7047036870B500211D69012204464A
:101F9000A847431C05460ED0216802220E69204640
:101FA0000021B047226806461369204629460022D0
:101FB0009847304670BD0646FBE700BF0D4B0E4A02
:101FC00030B4026003F58074002501E0A3420FD015
:101FD0001A4652F8041B814208BF42F8045C1346BB
:101FE00053F8042B8242F1D1A34243F8045CEFD1B1
:101FF00030BC7047E00D00107829010038B50F4A59
:102000000F4B04460260002503F5807001E0834217
:102010000FD01A4652F8041B8C4208BF42F8045CE9
:10202000134653F8042B9442F1D1834243F8045CE5
:10203000EFD1204601F05EFC204638BD7829010032
:10204000E00D0010074B186800B170474CF2020118
:102050004CF203020448C2F20901C2F2090200F084
:10206000FFBB00BFE00E00105C0F0010F0B50F4684
:1020700085B03049064606F02DF80446002836D0D3
:1020800030462D4906F026F860B330462B4906F05D
:1020900021F800282FD02A48002406E05D6801348A
:1020A000181D35B10134402C29D04568031D002D81
:1020B000F4D131783A2936D002A8314600F0EAFD51
:1020C00002A800F039FED0B102A800F021FEC8B18C
:1020D00002A800F027FE03468BB11A49E01C41F824
:1020E000243002E0FFF7AEFF012005B0F0BDFFF79E
:1020F000A9FF2046F9E7FFF7A5FF0220F5E74FF01B
:10210000FF30F2E702A800F0FBFD05460028F6D0FC
:10211000026802A8966800F0E7FD3A4601462846A4
:10212000B0470346D8E73046074901AA05F060FFEB
:10213000019BD1E73C2901006029010044290100ED
:10214000DC0D0010E00D0010A0290100022808B5E8
:102150000BDD084BC21E53F82200002143F8221069
:1021600028B103685A68904708BD002008BD4FF0A9
:10217000FF3008BDE00D00100228F8B50D461746E7
:1021800028DC1D490A68002A2DD00FB32C46EE1911
:1021900014F8011BED43AB19184803F0010500F0DA
:1021A000C9FCB44214D035B114F8011B134800F037
:1021B000C1FCB4420CD0254615F8011B0F4800F0B5
:1021C000B9FC61780D486C1C00F0B4FCB442F2D14B
:1021D0003846F8BD0A4B033853F8200040B1036875
:1021E0001B689847F8BDFFF72DFF002FCED1EFE712
:1021F0004FF0FF30F8BD00BFE00E00105C0F001084
:10220000E00D0010022810B50C460ADD0A4B033819
:1022100053F8200060B103689B6898470146084660
:1022200010BD064800F080FC01212070084610BD5A
:102230004FF0FF31F3E700BFE00D00105C0F00101E
:10224000022808B508DD074B033853F8200028B1F1
:102250000168CA68904708BD012008BD4FF0FF30F3
:1022600008BD00BFE00D0010022808B508DD074BCF
:10227000033853F8200028B103681B69984708BD4C
:10228000002008BD4FF0FF3008BD00BFE00D00107A
:10229000022808B504D84FF400504860002008BD5B
:1022A00003F09EFE092303604FF0FF3008BD00BF1E
:1022B00008B540F21853C1F20003186842F6A411A1
:1022C000C068C0F2010104F0F7F8012000F042FC00
:1022D00008B5012000F03EFC084A13681818EFF317
:1022E0000881884202D2106018467047044B0C22C5
:1022F0001A604FF0FF331846704700BFD800001037
:10230000640F00100749084A084B9A42BEBF51F8B3
:10231000040B42F8040BFFF7F8BF05488047054857
:1023200000470000B8360100C8000010A80A0010DD
:102330009523000029010000FEE7FEE7FEE7FEE727
:10234000FEE7FEE7FEE7FEE7FEE7FEE7FEE7FEE765
:10235000FEE7FEE7FEE7FEE7FEE7FEE7FEE7FEE755
:10236000FEE7FEE7FEE7FEE7FEE7FEE7FEE7FEE745
:10237000FEE7FEE7FEE7FEE7FEE7FEE7FEE7FEE735
:10238000FEE7FEE7FEE7FEE7FEE7FEE7FEE7FEE725
:10239000FEE700BF4FF44042C4F20F02202330B4E6
:1023A000C2F8A031D2F8A001800651D44FF44043C6
:1023B000C4F20F0300250221C3F804110124C3F85D
:1023C000A851AA20C3F8AC5155220B25C3F80C41E3
:1023D0001946C3F88450C3F88C00C3F88C20C3F8A6
:1023E0008040C3F88C00C3F88C20D1F888004FF4EB
:1023F00040434201C4F20F03F7D50322C3F8802003
:10240000AA205522C3F88C001946C3F88C20D1F8B5
:1024100088004FF4404310F0407FC4F20F03F6D021
:1024200048F2DE72C0F2284205210020C3F80811EC
:10243000C3F8C420C3F8C8011A6822F4704121F01F
:102440003A0040F4405242F03A01196030BC704703
:10245000D2F8A0114906A9D4D2F8A0114906F7D59F
:10246000A4E700BF10B50021044604F01F0400F0EB
:1024700047F8012000FA04F010BD00BF006800F02A
:1024800061B800BF31B9836841681A6822EA010265
:102490001A607047012900D0704783684268196844
:1024A00041EA020018607047F8B54B1C0D4604461F
:1024B00016461DD021600846FFF7D4FF25F01F0304
:1024C00003F11C0103F1180703F11402606021619C
:1024D000E7606261A36020463146FFF7D3FF2EB963
:1024E00028460321BDE8F84000F02CB8012E00D0AA
:1024F000F8BD28460221BDE8F84000F023B800BF2F
:10250000431C10B41BD000F16040A0F51C2404F063
:102510000F035800032202FA00F201FA00F14FF40F
:1025200040432009C4F2020353F8204024EA020287
:1025300043F8202053F82020114343F8201010BC0A
:10254000704700BF421C70B430D000F16040A0F56D
:102550001C20C1F3800400F01F0504FA05F54209B0
:102560004FF44043C4F202031A3253F8226026EAC1
:10257000050643F8226053F82260354343F82250A1
:10258000A4B900F00F046200032505FA02F501FA70
:1025900002F20009103053F8201021EA050443F834
:1025A000204053F82040224343F8202070BC70475D
:1025B0002DE9F04F00230468C4F2010389B09C4266
:1025C000079000F0E38040F393804FF40043C4F29F
:1025D00009039C424FF4404000F0C980C4F2090056
:1025E000844240F08B804FF44043C4F20F03D3F891
:1025F000AC2122F44020C3F8AC01D3F8AC2142F462
:102600008020C3F8AC01724B0801D3F800A0BAFBDC
:10261000F0F300FB13A29BB20693002A00F0A58002
:102620000846590801910EF0EBFA019A0646069801
:102630009042C0F09A80069C01250021B046029489
:10264000049503910020012505906A1CD5B2102D38
:102650005DD001980EF0D0FA4FF083410EF024FBCC
:102660000124814605E0019A0292601CC4B2AC428A
:10267000EBD050460EF0C0FA074620460EF0BCFAEA
:10268000834628460EF0B8FA014658460EF0C0FBC5
:102690004FF07E510EF000FA014648460EF004FB62
:1026A000014638460EF0B4FB014630460EF0F2F912
:1026B00031460EF0ADFB0DF04DFE02F04DFB0EF07D
:1026C00095F9414607460EF08DFC0028CDD041F229
:1026D0006F213846C3F683210EF084FCB84604957A
:1026E00003940028BFD0019B012102930591BCE710
:1026F0004FF44040C4F20000844258D0354D364972
:102700002E68F06803F0D8FE012000F023FA019B48
:10271000069C03F1010B1FFA8BFB5C45CDF804B05E
:1027200002D3059900298DD0029C0398049A079939
:1027300040EA021306940C68DBB2227B069942F051
:1027400080022273079C080A2268079C1071206887
:10275000C9B20170226882F828302368197B01F021
:102760007F00187309B0BDE8F08F1023E5E7C4F2CD
:102770000F00D0F8AC3123F44032C0F8AC21D0F8CF
:10278000AC3143F48032C0F8AC213CE74FF4404018
:10279000C4F20F00D0F8A83123F44072C0F8A82189
:1027A000D0F8A83143F48072C0F8A8212BE74FF489
:1027B0004043C4F20F03D3F8A82122F0C000C3F8AD
:1027C000A801D3F8A82142F04000C3F8A8011AE7F5
:1027D000DC000010180500101C2A010038B5013B70
:1027E000012B0D4628D84C1F032C27D8042A0ED8BD
:1027F000DFE802F016191C1F03003022082144EA0A
:1028000083030B4300681A43D1B2017338BD1049EA
:10281000104D2868C06803F04FFE012000F09AF9BF
:1028200000221146EBE700220821E8E710220821E8
:10283000E5E720220821E2E70749E9E7054C0749D7
:1028400023682A46D86803F037FE012000F082F999
:10285000842A010018050010282A0100442A0100DA
:102860002DE9F8430F460546A1493846164600F0C3
:10287000BFF9A0490446304600F0BAF901462046A7
:1028800000F09EF9431C044600F029810023C4F2A5
:102890000103984228607CD03CD94FF40042C4F236
:1028A0000902904200F0DD804FF44041C4F209017A
:1028B000884235D14FF44042C4F20F02D2F8C4101E
:1028C0004FF0010841F00070C2F8C40084F808809D
:1028D0002B6800245C6028464FF41651FFF768FE11
:1028E0002246434628460821FFF778FF38468049AC
:1028F00000F040F930467F4900F03CF93846214667
:10290000FFF720FE30462146FFF71CFE03226A60D7
:10291000BDE8F8834FF44040C4F20000844268D020
:102920004FF0010984F808902B684FF000084FF42D
:102930001651C3F804802846FFF73AFE42464B463C
:1029400008212846FFF74AFF3846694900F012F986
:102950003046684900F00EF938464146FFF7F2FD6F
:1029600030464146FFF7EEFD4046C4F20100844286
:102970003BD000F2A6804FF44042C4F200029442E1
:1029800063D04FF44040C4F2000084425FD0BDE801
:10299000F8834FF44040C4F20F00D0F8C4304FF039
:1029A000010843F01002C0F8C42084F808802968A8
:1029B00000244C6028464FF41651FFF7F9FD2246DB
:1029C000434628460821FFF709FF3846484900F0EA
:1029D000D1F83046474900F0CDF838462146FFF798
:1029E000B1FD30462146FFF7ADFD01206860BDE82E
:1029F000F8834FF44042C4F20F02D2F8C4104FF0F3
:102A0000010841F00803C2F8C43084F8088028683F
:102A1000002444604FF416512846FFF7C9FD2246B2
:102A2000434628460821FFF7D9FE3846304900F0D2
:102A3000A1F830462F4900F09DF838462146FFF7AF
:102A400081FD30462146FFF77DFD00246C602A4B56
:102A50002A480124294608221C60BDE8F84304F0F6
:102A60006FBD4FF44041C4F20F01D1F8C4004FF0E4
:102A7000010840F08073C1F8C43084F808802A68E7
:102A80000024546028464FF41651FFF791FD22466A
:102A9000434628460821FFF7A1FE3846144900F0B6
:102AA00069F83046134900F065F838462146FFF7CB
:102AB00049FD30462146FFF745FD02216960BDE82A
:102AC000F8834FF40041C4F209018C42F5D04FF471
:102AD0004043C4F209039C427FF453AF16E7084D0C
:102AE00008492E68F06803F0E7FC012000F032F896
:102AF000C42A0100B0290100E00E00105C0F001094
:102B000018050010A42A010010B440F6E46340F652
:102B1000F4644068C1F20004C1F20003216043F88C
:102B2000202010BC704700BF0268137DD907FCD578
:102B3000107870470268137D03F02000C3B2002BA9
:102B4000F9D0C9B2117070470368187D00F0010018
:102B5000704700BF10B5044600F00AF820B904B968
:102B6000FEE700F03BFDFBE700F060F8F7E700BF91
:102B700000F068B8431C10B5044613D00B68581C0D
:102B800004D110E051F80C3F5A1C0CD09C42F9D1F2
:102B900020468968FFF7B4FC20460221BDE81040BA
:102BA000FFF7D0BC10BD044804490268D06803F0A8
:102BB00083FC0120FFF7CEFF18050010302B010029
:102BC000884208B503D0421C02D0013102D108BDB1
:102BD000084608BD044B05491868C06803F06CFC42
:102BE0000120FFF7B7FF00BF18050010442B0100BC
:102BF00008B5431C0BD00B685A1C04D108E051F8EF
:102C00000C3F5A1C04D09842F9D1486808BD08BD51
:102C1000044805490268D06803F04EFC0120FFF724
:102C200099FF00BF18050010582B010030B585B082
:102C30006D46182420462946ABBE0446204605B002
:102C400030BD00BF4EF6F053CEF20003186800F01E
:102C50000100704738B5054600F096FC044600F0C8
:102C600093FC001BA842FAD338BD00BF4FF47A731F
:102C700003FB00F0FFF7EEBF4FF4105108B5C4F6A8
:102C800074110EF011F80EF0D5F9BDE80840FFF709
:102C9000E1BF00BF38B50022026042600B780446F5
:102CA0002F2B01D0204638BD48780028FAD0481C88
:102CB00020604B782F2B12D0A3B18D1C114600E061
:102CC00042B125602A782B46013101352F2AF7D1F0
:102CD0000133236000F02EFD6060204638BD0346BE
:102CE0001146F5E71946F5E700687047406808B5F2
:102CF00020B100F03FFD431E5842584108BD00BFBF
:102D000010B50446FFF7F2FF00B1606810BD00BFC8
:102D1000406808B528B100F02DFDD0F1010038BFA2
:102D2000002008BD10B50446FFF7F2FF10B160683F
:102D300000B1043810BD00BF4068003018BF01204A
:102D4000704700BF002201604260704708B5036809
:102D500001460BB1984708BD406810B18A69083137
:102D6000904708BD10B5044600F0A6F948F2A062ED
:102D700040F6F863C0F20102C1F2000362601C6019
:102D8000204610BD10B54160044600F007FA40F639
:102D9000F863C1F200031C6010BD00BF38B5054DDB
:102DA00004462B68834203D0416800F0F7F92C6099
:102DB00038BD00BFF80E0010F0B583B01C460546C4
:102DC0000F461646FFF7EAFF9DF82030394683F09C
:102DD0000100009032462846234600F0E7FA201A08
:102DE00018BF012003B0F0BDF0B583B01C46054606
:102DF0000F461646FFF7D2FF9DF82030394683F084
:102E00000100009032462846234600F0D5F9201AEA
:102E100018BF012003B0F0BD183000F04FB800BF5C
:102E2000183000F049B800BF38B504461D4600F11F
:102E3000180000F017F82046294600F0EDF842F699
:102E4000A833C0F2010303F108023C3384E80C000C
:102E5000204638BDC1EBC10100EB81000830FFF70F
:102E600075BF00BF70B504460D4600F10800002193
:102E70001646FFF767FF002104F12400FFF762FF09
:102E8000204629463246FFF7EBFC4FF4165342F634
:102E9000556120462364C0F200012246FFF734FE4C
:102EA000204670BD38B505460C46FFF781FB2C6403
:102EB00038BD00BFFFF748BEFFF736BE10B50C4661
:102EC000FFF738FE204610BD002070472DE9F04185
:102ED0008E18B1420F46054630D003688A1B0C4657
:102EE000D2435B6A14F8011B02F0010898470130D5
:102EF0001ED0A6421FD0B8F1000F09D0296828467D
:102F00004A6A14F8011B9047013011D0A64212D032
:102F1000286814F8011B436A284698470130284660
:102F200006D02A6814F8011B536A98470130EDD186
:102F3000E01BBDE8F081F01BBDE8F0810020BDE89A
:102F4000F08100BF2DE9F0418E18B1420F460546D1
:102F500031D003688A1BD1439C6A01F00108A04765
:102F6000431C3C4624D03C4604F8010BA6421CD02E
:102F7000B8F1000F06D02B6828469A6A9047431C88
:102F80000FD115E0296828468B6A98470246511CE4
:102F900028460DD004F8012B29688B6A9847421CFB
:102FA00006D004F8010BA642ECD1F01BBDE8F0817D
:102FB000E01BBDE8F0810020BDE8F08100207047F3
:102FC00000207047002070470020704742F61043F1
:102FD000C0F2010303F108023C3310B5044680E857
:102FE0000C00406903F044F8204600F0C5FB204681
:102FF00010BD00BFA0F10400FFF7E8BF10B5044604
:10300000FFF7E4FF204600F075FC204610BD00BF2E
:10301000A0F10400FFF7F2BF10B584B0044600F041
:10302000D1FB42F61043C0F2010303F1080042F65F
:10303000A0113C3384E809002246C0F2010101A836
:1030400004F0B0FF42F66441C0F2010101A803F0B0
:103050002BFA0021606104F0ABFE204604B010BDE5
:1030600038B5044640690D4603F0C4F86169284646
:10307000BDE8384003F034BA10B50446406903F0A7
:10308000B9F86069BDE8104003F0C6B80EB430B5B9
:1030900082B005AB53F8045B04464069019303F02A
:1030A000A9F860692946019A09F01CF802B0BDE848
:1030B000304003B0704700BFF8B50D4606463249B0
:1030C00028461446FFF794FD304907462046FFF78F
:1030D0008FFD01463846FFF773FD421C0346306002
:1030E00049D04FF44042C4F20502904238D000204B
:1030F000C4F20A0083424FF4404228D0C4F20102D5
:10310000934219D0224A42F663501168C0F23E50F1
:103110000A0AA0FB02013C228809586118619A61E1
:103120004022284618491A60FFF724FD1749204617
:10313000BDE8F840FFF71EBD4FF44040C4F20F0059
:10314000D0F8C41041F08002C0F8C420DAE7C4F21D
:103150000F02D2F8C40040F08061C2F8C410D1E779
:103160004FF44042C4F20F02D2F8C40040F40021F0
:10317000C2F8C410C6E7074C07492568E86803F0A1
:103180009BF90120FFF7E6FC782C0100CC2C010014
:10319000DC00001018050010B42C010040F2DC0324
:1031A000C1F200031A68006893084900B3FBF1F20A
:1031B00042610261704700BF2DE9F00104683C25BF
:1031C0002426A5612660256827462D070DD448F2E0
:1031D000A065C0F2010504E02668360705D4013D6C
:1031E00003D02668013D3607F6D565682026102DE8
:1031F000A6611CD0082D1AD0102108202160A061E2
:103200002368DB060DD548F2A060C0F2010004E09F
:103210002268D60605D5481E03D02668411EF00652
:10322000F6D46FF001063046BDE8F001704741F07A
:1032300001010826A160A661216809070DD448F2A2
:10324000A066C0F2010604E025682E0705D44E1ED4
:1032500003D02568711E2E07F6D56168402917D066
:10326000102608222660A2612168CB060DD548F2FF
:10327000A062C0F2010204E02668F60605D55A1ED7
:1032800003D02068531EC006F6D44FF0FF36CAE7BD
:1032900003F1FF3C0026BCF1000F22DD4FF00408D3
:1032A0000827C4F80080A761256829070DD448F2D3
:1032B000A061C0F2010104E025682D0705D40139A1
:1032C00003D0256801392D07F6D5A5686168EDB2F0
:1032D000502936D195550136664501D00468E0E79E
:1032E000076804240821BC61B9613C6821070DD43A
:1032F00048F2A061C0F2010104E03C68240705D453
:10330000013903D03C6801392407F6D5BC687968D7
:1033100058292FD0102308223B60BA613868C306B1
:103320000DD548F2A062C0F2010204E03B68DE065F
:1033300005D54A1E03D03E68511EF006F6D46646F7
:1033400071E7102008212060A1612368D9067FF56C
:103350006AAF48F2A063C0F2010306E02068C2062B
:103360007FF561AF4B1E3FF45EAF2268591ED00659
:10337000F4D458E79455059AAAB10268082610209B
:10338000106096611168C9060DD548F2A061C0F2BF
:10339000010104E01668F60605D5013903D010686E
:1033A0000139C006F6D41E463DE700BF70B404687C
:1033B00024253C20A0612560206800070DD448F238
:1033C000A060C0F2010004E025682D0705D4013893
:1033D00003D0256801382D07F6D560682025102810
:1033E000A5611AD0082818D0102008232060A361F6
:1033F0002168C9060DD548F2A061C0F2010104E0C0
:103400002068C20605D5591E03D022684B1ED0067F
:10341000F6D46FF0010070BC704701F0FE01082087
:10342000A160A061216809070DD448F2A061C0F233
:10343000010104E02068000705D4013903D02068A9
:1034400001390007F6D56068182817D01020082128
:103450002060A1612268D1060DD548F2A062C0F2B9
:10346000010204E02168CA0605D55A1E03D020686F
:10347000531EC006F6D44FF0FF30CCE7002B1DDD05
:1034800000200826115CA160A661216809070FD4FD
:1034900048F2A061C0F2010105E0256815F0080FAF
:1034A00006D1013904D02568013915F0080FF4D090
:1034B000616828291BD101309842E3D1039AA2B157
:1034C000102008212060A1612268D2060DD548F2A3
:1034D000A062C0F2010204E02168C80605D5013AE5
:1034E00003D02068013AC106F6D4184693E71023AA
:1034F00008212360A1612268D1068CD548F2A0631F
:10350000C0F2010304E02268D20684D5013B82D0D8
:103510002168013BC906F6D47DE700BF174A38B5DC
:1035200013684BBB4FF44041C4F20F01D1F8C40003
:1035300001254FF480441560C4F2090440F40000F2
:103540000F4AC1F8C400236711684DF683638808E9
:10355000C4F21B33A3FB0012910C4B1E02206060CF
:103560000849E36004206560FEF7E6FC4FF4614122
:10357000CEF2000110220A6038BD00BFFC0E001020
:10358000DC0000106136000008B5054B186808B96A
:10359000FFF7C4FF4FF48041C4F20901886808BDF9
:1035A000FC0E00104FF48043C4F2090398615A697D
:1035B00042F00100586170474FF48043C4F20903A0
:1035C0005A6922F001005861704700BF4FF48043F0
:1035D000C4F2090301221A60704700BF00B54CF223
:1035E000320199B06846C2F209010122FEF75CFF80
:1035F0004CF2340106A8C2F209010122FEF754FF81
:103600004CF235010CA8C2F209010122FEF74CFF71
:103610004CF2370112A8C2F209010122FEF744FF61
:10362000019A039B0A991A600798109B08600D9AEB
:1036300096201A601399159A1160FFF717FB0198ED
:10364000049B099A186007990F9B11600D98169AB0
:103650001860139996201160FFF708FBE0E700BFA0
:1036600070B5FFF7B3FF0E4C0E4E206870B10568C1
:10367000FFF78AFF281A00280CDC21683268886866
:103680002060002AF2D048689047EEE7BDE870401D
:10369000FFF792BF23681868BDE87040FFF782BF4C
:1036A000000F0010040F0010094A8368026053B134
:1036B00008490A68824201D106E01A4653689842D6
:1036C000FBD141685160704743680B60704700BF91
:1036D000282D0100080F00100C4A836810B504461D
:1036E000026053B10A480268944201D10AE00A46D6
:1036F00051688C42FBD163685360204600F0FAF8B1
:10370000204610BD61680160F7E700BF282D010069
:10371000080F0010054B81600360027321B104495A
:103720000A6808604260704741607047282D0100B8
:10373000080F00100E4B70B51C6806460D4614B9F4
:1037400012E0646884B1A36831462A461846002B0B
:10375000F7D004F0CBFD0028F3D1A06804F098FD69
:10376000A842EED1204670BD0024204670BD00BFA7
:10377000080F0010007B704742F67053C0F201033F
:1037800010B503F134020446083340F8042F2360D7
:10379000FFF78AFF2046FEF711FC204610BD00BF50
:1037A000A0F10400FFF7E8BF10B50446FFF7E4FFFF
:1037B000204600F09FF8204610BD00BFA0F1040095
:1037C000FFF7F2BF094B10B50022044640F8043B56
:1037D000FFF7A0FF42F67053C0F2010303F10802A5
:1037E000343384E80C00204610BD00BF7829010066
:1037F0000B460146184602F0EDBB00BF70B50668E7
:1038000084B0002410231546029312686B46B669F3
:1038100000948DF804400394B0479DF8043003F001
:103820000603062B11BF2046009B01202B6004B02D
:1038300070BD00BF009890420CBF06200120704769
:1038400010B50446024B036000F0EEF8204610BDB0
:10385000B82D010010B50446044B036000F0E4F8F5
:10386000204600F047F8204610BD00BFB82D0100EB
:1038700038B515461C4600F0DBF820B108220623B7
:103880002560E260237138BDF0B583B0089D0A99C8
:1038900017468D4206460B9C0BD01946304600F069
:1038A000C7F818B1012325602771A371002003B068
:1038B000F0BD0999019300F0BBF818B100206771C1
:1038C00003B0F0BD019BE8E72DE9F04117461C4627
:1038D00006460D4600F0ACF808B9032C01D9BDE846
:1038E000F0812B683A4631462846BDE8F0415B69D5
:1038F000184700BF03F02ABB10B50446024B036013
:10390000FFF79EFF204610BD142E010010B504469F
:10391000044B0360FFF794FF2046FFF7EBFF2046C0
:1039200010BD00BF142E01002DE9F04F894681B073
:1039300019461D46164607460A9CDDF82CB0DDF8F0
:1039400030A0DDF8348000F073F888B1B9F1000FD1
:10395000C8F8004088F804601EDB4C44A2450CBF48
:103960000624012488F80640002001B0BDE8F08F4D
:10397000544518D0B8682B460568CDF83480CDF88A
:1039800030A0CDF82CB00A94EC6932464946A446E2
:1039900001B0BDE8F04F604719F1020FE4D10123F7
:1039A00088F80630E0E75946384600F041F800282C
:1039B000E0D0002088F8056001B0BDE8F08F00BFBE
:1039C00070B582B0069C0D469442064609D0B06898
:1039D000294606680694346AA44602B0BDE87040E1
:1039E000604719460192009300F022F8009B019A6B
:1039F0000028ECD0062002B070BD00BF2DE9F041D8
:103A000007460C4615461E46FFF732FF08B1BDE8D3
:103A1000F081B868334606682146B4692A46A44650
:103A2000BDE8F041604700BF704700BF002070470D
:103A3000814211D008B5406803782A2B0AD0496822
:103A40000B782A2B08BF013104F044FBB0FA80F058
:103A5000400908BD002008BD0120704710B504468C
:103A6000024B0360FFF7ECFE204610BDC02E0100A4
:103A700010B50446044B0360FFF7E2FE2046FFF753
:103A800039FF204610BD00BFC02E01002DE9F04FC8
:103A900083B0DDF8309017464A4588469A46054679
:103AA0002BD0EE6805EBC605EEB1EB68013E13F0D6
:103AB000020F4FEA232213D013F0010404D018F1AF
:103AC000030F0DD03B689A58A8683A440368CDF8B4
:103AD0000090D3F820B041465346D847032806D873
:103AE000083D002EE1D1012003B0BDE8F08F002C8D
:103AF000FAD040F00100C0B2F6E71946FFF798FF90
:103B00000028CED00620EFE72DE9F04F93B01F9CA0
:103B100005460B90A0688B46C10608920693DDF817
:103B200070A001D5AB68A3601E9B9A4500F07E8112
:103B300006990B98FFF77CFF03460A90002840F097
:103B40009A80BBF1000FAABF1E9B0A9BCBEB03031D
:103B50001A46CDF814B09346002307930D931F46E1
:103B600001230993089B43F001030C930B9AD3683C
:103B700002EBC3080493049B002B00F04E81D8F89D
:103B80000C10A568CA0748BFDAF800004FEA2123E5
:103B9000119548BFC3580F978DF840708DF841704C
:103BA0008DF842704CBF0C9A089A5344BBF1000F39
:103BB00007D05B45099E94BF00200120B04200F071
:103BC000C3808E0705D40599023100F0C08002F051
:103BD000FD02D8F808001E9E016802961D9E0FADDA
:103BE0008DE848000395CD69069B0599A847627941
:103BF0009DF841309DF842501343062D637100F04B
:103C00000281022D00F0FF80079A002A40F0938085
:103C10002268002A00F0EA800F99914200F0CE80DD
:103C2000002900F0D180032B94F8069004D9DB071B
:103C30003AD5A3689E0737D5B9F1000F40F09380BD
:103C4000032D40F2AB80EB0700F1A38085F0010368
:103C5000DBB2032B65D84FF0010909EA05095FFAC9
:103C600089F9B9F1030F39D902230022A371012385
:103C700022600A9314E09DF82030BBF1000FC4F8D5
:103C800000A02371C0F2E5801E9BDA44534514BFA7
:103C90004FF0010A4FF0060A00230A9384F806A0A9
:103CA0000A9813B0BDE8F08FB9F1000F14D0002DC1
:103CB0002FD14D4689F00103DBB2032B0ED909F059
:103CC00002095FFA89F3A571002BE9D1EB0709D44A
:103CD000E6E705998B1C3DD1002D69D101232760B2
:103CE000A37107936379042B00F0B080049BA8F1C3
:103CF0000808013B04933EE7059B023371D0069808
:103D00001E9A036800921D6A0A461D9B0599A847E2
:103D1000054689EA0503DBB2032B9ED9032D33D96F
:103D20000F9905F00203DBB29DF84020216022715B
:103D300000220792C7E72268002A7FF46DAF0F992F
:103D400000297FF470AFCEE701230D93CEE7A907DA
:103D5000CCD03CE706981E9E03680096D3F82090CE
:103D60001D9BC8478146002DD3D1B9F1030F2FD930
:103D700019F0010F03D00B9B9B689A0728D489F098
:103D80000103DBB2032BA9D909F00203DBB24D46D4
:103D900099E70B9B9B689E077FF558AF059B002B0F
:103DA00097DB059B1A441E9B934262D0002D58D08E
:103DB00085F00103DBB24FF00109ADE721799DF8F1
:103DC00040200A4322718EE700287FF42CAF8AE757
:103DD000059B0F99002B8FDB059B1E9ACB189A42EF
:103DE0004ED089F00103DBB24D4666E70F9A9DF88D
:103DF00040102260217122B16BB10B9A9268D207F8
:103E00004CD507906FE70F9A9DF84030A5710A9046
:103E10002260237144E7079068E70D9BDDF810905E
:103E2000A3B1099B93B1CDF824909FE61D990B98FF
:103E3000FFF7FEFD00283FF47BAE9DF82030637154
:103E400000230A930A9813B0BDE8F08F079B0A93EA
:103E500026E71BF1020FF3D10123A37100230A937C
:103E60001EE7059B1E9ACB189A4211D04FF001090C
:103E7000B7E785B185F00603DBB24FF006094BE7E3
:103E800089F00603DBB2032B02D809F00609E8E645
:103E90000223062548E74FF0060975E70A90FFE67A
:103EA0002DE9F04F89B004460390019117469846DA
:103EB000FFF7DEFC814600285AD1D8F80830DD062D
:103EC000009301D5A3680093039A009BD56803F083
:103ED0000103002602EBC5040293002D41D0E268E5
:103EE000009B12F0020B04968DF81460069307965F
:103EF00002F0010A01D1029B7BB3002F3CD01212C9
:103F0000BAF1000F01D03B689A583A44A068019971
:103F10000368D3F8189004ABC8478146E8B1079B03
:103F2000082B2BD09DF81430032B06D9BBF1000FC2
:103F300003D123F002038DF81430D8F80C1019B314
:103F4000D8F80030049A934248D173B398F804200B
:103F50009DF81430134388F80430013D083C002DCF
:103F6000BDD198F8049019F1000918BF4FF001096C
:103F7000484609B0BDE8F08F3A46C7E7BAF1000FEE
:103F8000D0D0A3680793CDE704AB0FCB88E80F0030
:103F900098F80430032BEBD9980716D5039B9B6840
:103FA000D907E5D5013D083CD9E70798082805D091
:103FB000082903D0FFF73CFD0028C7D1484602235B
:103FC00088F8043009B0BDE8F08FDA07D0D5039B3C
:103FD0009B689B07CCD5013D083CC0E748460022C2
:103FE0000223C8F8002088F8043009B0BDE8F08F3B
:103FF000F0B41D4CA0F10806616850F8087CC9B106
:10400000F519A9421BD04A682AB3954204D326E089
:104010009D42114604D21A4653680C1D002BF7D15D
:1040200011685518AE4213D040F8043C23685E6016
:10403000F0BC704740F8041C6660F0BC704791E823
:104040000C00174440F8087C40F8043C6660EFE739
:1040500039441160ECE7134604340A46E0E713469E
:1040600004340A46DCE700BF0C0F001030B4174CD4
:1040700000F10803072B636886BF00F10F0121F0F0
:1040800007010821EBB11A68914204D81BE00268CD
:104090008A4205D2034658680028F8D130BC7047E0
:1040A0000433521A072A09D94568441865604250FA
:1040B000186801601C60083030BC704742681A60A4
:1040C000F9E71846EAE71846231DEAE70C0F001047
:1040D00038B500F18005284602F030FF044638B1BB
:1040E00080220021204603F005FB04F1800038BD4A
:1040F0002846FFF7BBFF04460028F1D100F044F842
:10410000064A80389368984205D9D2681344984289
:1041100001D2FFF76DBF02F019BF00BF0C0F0010F6
:1041200038B5084C4FF41E652846E56002F006FFDE
:10413000A06020B1002360600560436038BDE0608E
:10414000606038BD0C0F0010704700BF004870471A
:10415000482F010010B50446FFF7CCFB204610BDE8
:1041600008B5804701F02EFF00F03AFA01F02AFF6F
:104170000D46044600F07AFA013501D000F0C4F88B
:10418000204600F0B7F900BF08B5034B1868BFF32D
:104190005F8FFFF7E5FF00BFE400001008B5804720
:1041A000FFF7F2FF08B5034B1868BFF35F8FFFF707
:1041B000F5FF00BFE0000010024B1868BFF35F8FEF
:1041C000704700BFE4000010024B1868BFF35F8F18
:1041D000704700BFE0000010012810B51AD8BFF3E7
:1041E0005F8FA1F1280353E8002F013A43E8002034
:1041F0000028F8D1BFF35F8F5AB951F81C3C01F188
:1042000058040BB1204698472046BDE81040FFF700
:1042100077BF10BD51F8140CFFF7A2FFF8B50446A4
:104220000F46164600F06CFA436801252B444360A4
:1042300044F8787C44F8746C44F8805CFFF7C4FF61
:1042400044F8700CFFF7B8FF1249472343224FF0A0
:104250004E0EA4F1580504F8583C55272B23002690
:1042600044F86C0C04F857EC44F8501C04F8552C36
:1042700004F8542C04F8533C04F8523C04F8567CDF
:1042800004F8516C28460DF0F7FD284600F0A8F917
:10429000FFF77AFFD941000010B500F031FA42680B
:1042A0000368013242606BB193F82020472A0BD09B
:1042B0000022026003F1200420460DF001FE20469A
:1042C00000F08EF9FFF760FF93F821204E2AEFD11E
:1042D00093F82220552AEBD193F82320432AE7D1E3
:1042E00093F82420432AE3D193F825202B2ADFD109
:1042F00093F826202B2ADBD193F82720012AD7D840
:104300005A6952425A61D5E71EB400F08DF81EBCBE
:104310000DF0C4FDF0B5027883B0472A0E461F4663
:104320001AD00023254C0193236820469B689847A8
:1043300080B1019B02251B680193336821463046FA
:104340001C6901AA0123A04710B12846019B3B60CC
:1043500003B0F0BD0125F0E743784E2BE1D183781F
:10436000552BDED1C378432B19D0C378432BD8D13A
:104370000379432BD5D143792B2BD2D183792B2BA6
:10438000CFD1C379012BCCD804D050F8204C583071
:104390000190C9E750F8200C50F8784CF8E7037901
:1043A000462BE2D143794F2BDFD18379522BDCD1DD
:1043B000C379002BD9D10193014CB5E75C2F0100E3
:1043C000042F010010B5044600F09AF92378A4F1F7
:1043D0002002472B04D0836823BB8260012010BDDC
:1043E00063784E2BF7D1A378552BF4D1E378432B88
:1043F000F1D12379432BEED163792B2BEBD1A37928
:104400002B2BE8D1E379012BE5D854F8043C013398
:10441000012B44F8043CE1D1836844F8083C8260F5
:10442000012010BDFFF7B0FE08B500F069F9836800
:1044300083B393F82020472A04D00022826003F13E
:10444000200008BD93F821204E2AF6D193F82220AF
:10445000552AF2D193F82320432AEED193F8242051
:10446000432AEAD193F825202B2AE6D193F8262077
:104470002B2AE2D193F82720012ADED8DA69013A03
:10448000DA61002ADBD19969002281609A6103F127
:10449000200008BDFFF778FE0378472B01D00020ED
:1044A000704743784E2BFAD18378552BF7D1C378D8
:1044B000432BF4D10379432BF1D143792B2BEED14C
:1044C00083792B2BEBD1C07901288CBF00200120F0
:1044D000704700BF10B530B1044600F081F82046A7
:1044E000FFF7DAFF08B9FFF74FFE54F8140CFFF797
:1044F00037FE00BF2DE9F04F85B00246FFF7CCFF35
:1045000068B152F8184C104652F8145C966A176B52
:10451000D2F834B000F064F82046FFF73FFE1046B2
:1045200000F05EF8FFF73EFE00F05AF8FFF72CFEB1
:1045300000F056F800F0E0F8D0F8008098F8273046
:10454000012B39D008F178034FF000095C46CB46C7
:104550000DF1100A27F0030200924AF8083DB34516
:104560001EDA276807B1274453460022394608F16E
:104570002000FFF7CFFE28BB3B6804AA1B6942F866
:10458000040D0193384601231249019FB847009B4F
:10459000002818BF4FF001090BF1010B1C44DEE7A6
:1045A000B9F1000F0BD00420FFF792FD0A4B0B4A24
:1045B00003600849FFF732FED8F80030C4E7284608
:1045C000FFF7CEFDFFF768FE00F050F800F04EF860
:1045D000FFF79AFE9C2F01006C2F0100494100005B
:1045E00038B5044600F08CF822780368472AA4F115
:1045F000200105D0002B31D11C460160204638BD7A
:1046000062784E2AF6D1A278552AF3D1E278432A6D
:10461000F0D12279432AEDD162792B2AEAD1A2790D
:104620002B2AE7D1E279012AE4D854F80C2C002A8D
:1046300011DB013245688B4244F80C2C05F1FF3246
:1046400042601CBF44F8103C01602046646A0DF0D3
:104650006DF8204638BDC2F10102EBE7FFF794FD8B
:10466000013101D0FFF750FEFFF744FF08B500F01D
:1046700043F80246006800283DD090F82030472BD0
:1046800006D0002313602030BDE808400DF050B87C
:1046900090F821304E2BF4D190F82230552BF0D1E8
:1046A00090F82330432BECD190F82430432BE8D101
:1046B00090F825302B2BE4D190F826302B2BE0D12D
:1046C00090F82730012BDCD84369002B05DB013B38
:1046D00008D05A1C0DD0436108BD0133FBD10169DC
:1046E0001160F8E7036920301360BDE808400DF061
:1046F0001FB8FFF749FD08BD004870471C0F0010A8
:10470000004870471C0F00105028F8B554D000F036
:104710000F040C2C4ED8DFE804F007394907174D79
:104720004D4D4D1F1B071700154655F8044B44B15E
:1047300000F07006102E18BF0A461444020648BF47
:1047400024681C602846F8BD154655F8084BEEE76E
:10475000154635F9024BEAE700242746154615F8B9
:1047600001EB0EF07F06BE401EF0800F44EA060407
:1047700007F10707F3D11F2FD9D81EF0400FD6D06D
:104780004FF0FF3606FA07F73C43D1E700242746EF
:10479000154615F801EB0EF07F06BE401EF0800FA7
:1047A00044EA060407F10707F3D1C0E7154635F8D8
:1047B000024BBCE701F006FC033222F0030555F87A
:1047C000044B1C602846F8BDFF2815D008B500F042
:1047D0007003202B12D00AD9402B14D0502B17D0A5
:1047E000302B07D1BDE8084008460DF045BD7BB130
:1047F000102B0DD001F0E6FB002070470846BDE805
:1048000008400DF035BD0846BDE808400DF020BD5C
:10481000002008BDF8B50C4615460746002842D0D2
:104820000DF016FD286026780134FF2E32D039466F
:104830003046FFF7C9FF224601462B1D3046FFF7E1
:1048400063FF04462378601CFF2B2B7528D00024BF
:10485000224610232B7510F8011B01F07F039340B3
:10486000090644EA030402F10702F4D40444EC60AC
:1048700000242246037801306B7510F8011B01F00B
:104880007F0393401C430B0602F10702F5D4044456
:104890002C61F8BD68602378601CFF2B2B75D6D186
:1048A0000023EB60E4E7BDE72DE9F04F00F00304DF
:1048B00097B00023012C894690460A9321D00ED34D
:1048C000022C0AD1414648460DF0AEFC002800F00B
:1048D000D480092017B0BDE8F08F01F073FB00F021
:1048E000080000F0FF030028ECD116AA42F82C1DA6
:1048F000009219460C2240460CF046FF0123049317
:1049000013E000F0080000F0FF04002800F0B98078
:1049100016AA42F82C1D44F002040092E4B2194693
:104920000C22404604940CF02FFF40460DF096FCFC
:1049300005900028C6D010AB1A460599404606934C
:10494000FFF768FF414604469DF85400FFF73CFF1F
:104950000DF13C0B0023129019460F22CDF800B048
:1049600040460CF0EBFE0F9B149A23F00103944297
:1049700003F1FF3643D20DF1340A0EAF9DF85550C6
:1049800000212846FFF720FF2246534601462846CD
:10499000FFF7BAFE9DF85540054600212046FFF777
:1049A00013FF2A463B4601462046FFF7ADFE9DF821
:1049B0005540054600212046FFF706FF2A460146DE
:1049C0005B462046FFF7A0FE04460020024614F88E
:1049D000011B01F07F0393400D0640EA030002F142
:1049E0000702F4D4109A0D9B13449E4207D30E9AEB
:1049F00013449E42C0F0BA80149BA342BED8002547
:104A000003950124049BDB0756D4049B190740F14E
:104A1000A880012C00F09C810DF1340A0EAF16AA7B
:104A2000002342F8289D1946009240461A460CF091
:104A3000ABFE002319460122CDF800A040460D959B
:104A40000CF0A2FE002319460F22009740460CF0FE
:104A500075FE0E9A039D002302F001021543009794
:104A6000404619460F220E950CF08EFE022C00F0E7
:104A7000F580072017B0BDE8F08F082017B0BDE81B
:104A8000F08F10AB009306930D222346214640463B
:104A9000D9F820500CF052FE109B9D4224D016AB4A
:104AA00043F82C9D0093214623460C2240460CF0EF
:104AB0006BFE0223049338E70EAF002319460D2244
:104AC000009740460A9C0CF039FE059A0E9BC9F8E7
:104AD0002C20039AC9F82440C9F82850C9F830207E
:104AE000C9F820300620F5E616AB43F82C9D00935C
:104AF000214623460C2240460CF046FED9F83030C1
:104B0000039383B3D9F82C30D9F8285005930324A4
:104B10000DF1340A0EAF002D81DA069A0599404650
:104B2000FFF778FE41469DF85400FFF74DFEAA00BE
:104B300082F00302D243139E1290B358164433B14D
:104B40003246002352F8041F01330029FAD104220F
:104B5000C9F82830C9F82C00C9F83460C9F83020E9
:104B60005DE7012CD4D14846FFF7B4FC0F9B002B26
:104B70003FF4A8AE119A13440393002800F0D580A7
:104B8000149C01380444002B3FF49CAE002C00F030
:104B9000D080049B13F00803099300F0BC804722E7
:104BA0004E2389F8002089F801305522432389F8E3
:104BB000022089F8033046224F2389F8042089F81F
:104BC00005305222002389F8062089F80730002397
:104BD0000793CDF8208000252A4614F8011B01F028
:104BE0007F039340080645EA030502F10702F4D467
:104BF0001F2A05D8490603D5012393405B421D4374
:104C000000263246204610F8011B01F07F03934036
:104C10001E430B0602F10702F5D41F2A05D84806E9
:104C200003D5012393405B421E43002D3DD03FDD61
:104C30009DF85400FF286CD000F00703042B3FF6CA
:104C40004CAE01A252F823F08F4C0000DB4800006C
:104C5000894C00008F4C0000674C00004846FFF76D
:104C6000B1FB072036E6EB005B42139A12991A4417
:104C70003B46FFF749FD0E9999B1B9F1000F09D1F3
:104C8000002E5DD03444A6E76B005B42EDE7AB003D
:104C90005B42EAE70AAB00224846FFF73BFB0028ED
:104CA000EED0DDF820800324ACE601230793E7E78C
:104CB000B9F1000F01D0099B93B16B1C139AC3EBA0
:104CC000837352F82330002BDAD1049BDDF8208067
:104CD000DA073FF5F2AE099B002B3BD0FFF762FAF3
:104CE000139A6B1CC3EB837352F823100A9802EBE0
:104CF00083080F9021B9E8E758F8041F0029E4D091
:104D000041445B4600224846FFF704FB0028F3D0ED
:104D1000B6E70023A9E799F80730012B0CBF59F833
:104D2000203C09F158030A9351E7039B002B3FF401
:104D3000C9AD049B13F001057FF4C4AD022464E601
:104D4000079BDDF82080002BF3D1BBE5FFF748FC83
:104D5000FFF71AFA0324DEE621F00041704700BF96
:104D60002DE9F04F8DB006460F4614461D4600F063
:104D7000EBF9DFF81093CDE9000199F90080B8F163
:104D8000FF3F46D022462B46204629460BF0D0FD59
:104D9000834600283DD132463B46304639460BF02B
:104DA000C7FD8246002874D13046394600220023D0
:104DB0000BF08CFD002833D000220023204629462A
:104DC0000BF084FD8346B8B1A94A012300200021DD
:104DD000CDF828A0CDE90467CDE90645CDE9080165
:104DE00003920293B8F1000F6CD0A24B0022104640
:104DF00019460DB0BDE8F08F2046294600F0CAFFE5
:104E000038B100220023204629460BF069FD002816
:104E10006AD1DDE90023104619460DB0BDE8F08FD8
:104E2000DDE9000100F0B6FF804600287DD0DDE915
:104E300000014FF0000A4FF0000B52465B460BF0AA
:104E400045FD0028E5D03046394600F0A3FF002894
:104E5000DFD02046294600F09DFF0028D9D099F9DF
:104E60000030834804210022022BCDE90467CDE9FC
:104E70000645CDE908AB039002910A9204D002A83E
:104E800000F08EFF002847D101F0AAF8222303602A
:104E900042E000220023204629460BF017FD00289F
:104EA000B7D0744B724800220121B8F1020FCDF83F
:104EB00028B0CDE90467CDE90645CDE90823039084
:104EC0000291A8D002A800F06BFF00287ED00A9BB8
:104ED00043B301F085F8DDE908230A990160104623
:104EE00019460DB0BDE8F08F614999F900300122F3
:104EF000CDF828B0CDE90467CDE9064503910292CB
:104F0000002B68D05C490020022BCDE9080166D156
:104F100001F066F8212303600A9B1BB101F060F8E1
:104F20000A9B0360DDE9082375E73046394600F047
:104F300031FF00283FF47BAF2046294600F02AFFCE
:104F400000283FF474AFDDE90023104619460BF04A
:104F5000EFFC00286FD1464B99F90080039303239F
:104F60000A90CDE90467CDE906450293B8F1000F38
:104F70003BD1DFF814B14FF0604A002200233046E5
:104F80003946CDE908AB0BF0ABFC00283FF477AF16
:104F900000223A4B204629460BF030FA04460D46D3
:104FA00000F006FF02460B46204629460BF08EFC19
:104FB00000283DD1324B4FF06042CDE9082399F9EA
:104FC0000080B8F1020F7FF45AAF5DE701F008F8F6
:104FD000212303607BE700230024CDE9083402A8E5
:104FE00000F0DEFE002897D192E7DFF8A0B04FF086
:104FF000000A0022002330463946CDE908AB0BF009
:105000006FFC0028DDD000221C4B204629460BF007
:10501000F5F904460D4600F0CBFE02460B4620464D
:1050200029460BF053FC18B9134B0022CDE9082395
:1050300099F90080C5E70E4A99F900900123CDF84F
:105040002880CDE90467CDE9064503920293B9F1C2
:10505000000FC0D000220023104619460BF0F8FACA
:10506000B9F1020FCDE908013FF452AFB7E700BF35
:10507000A82F01000000F03F0000F0FF0000E03F1B
:10508000FFFFEFC7E8000010FFFFEF470000F07FD1
:105090002DE9F04F8BB004460D4600F0B7FD284BCC
:1050A000064693F900A00F46BAF1FF3F12D0224600
:1050B0002B46204629460BF03BFC834650B94FF067
:1050C00000084FF000092046294642464B460BF0A7
:1050D00007FC20B9304639460BB0BDE8F08F194ABD
:1050E0000123CDF820B0CDE90445CDE90245019278
:1050F0000093BAF1000F15D042464B464046494650
:105100000BF0A6FABAF1020FCDE906010CD100F0BE
:1051100067FF21230360089B63B9DDE906010BB03B
:10512000BDE8F08FCDE90689684600F039FE002819
:10513000F1D1ECE700F054FF089B0360EDE700BFFE
:10514000E8000010AC2F01002DE9F04F23F00048DB
:1051500058EA020993B03CD0714C21F00046A642B7
:1051600083460D460CDD06F1404606F5801656EAEC
:105170000B0038D183466B49584613B0BDE8F08F19
:105180009A4696462BD0A045EDDC654CA04578D0DC
:10519000002D0F468146CDE9002376DB0024BEF1C9
:1051A000000F27D15E4B984500F08B805D4B9845F2
:1051B00052D0BAF1804F00F0C9835B4B9A4519D1A8
:1051C000002D17DB4846394613B0BDE8F04F00F01C
:1051D0001DBDCB465846534913B0BDE8F08F00289B
:1051E000C1D1B045D1DD514813B0BDE8F04F00F05A
:1051F000D9BD002448463946FFF7AEFDBBF1000F8C
:105200001CD0ED0F013D54EA050370D0484B984582
:1052100040F3948003F10473984540F30D84454BAB
:105220009E4270DDBAF1000F70DD3BA3D3E900238D
:10523000104619460BF0E2F883469DE726B1394B3C
:1052400025F040429A42DCD1BAF1000FC0F2B78398
:10525000002D08DB83468FE7BAF1000FC0F25E84B1
:10526000CB46394688E706F1404606F5801656EAF1
:10527000040300F08384012CECD101F1004183464A
:105280007AE7BEF1000F83D06DE72B4B98452CDCFD
:10529000A3F15473984581DD4FEA2853A3F2FF33FD
:1052A000142B40F35384C3F134032EFA03F202FAB1
:1052B00003F39E457FF472AF02F00102C2F10204D3
:1052C0006DE706F1404303F5801353EA0B0300F04A
:1052D0003A83184B9E4240F36783BAF1000F15DB07
:1052E000DDE900349B46214646E7022457E74A465B
:1052F00048463B4639460AF0CDFE02460B460BF0C7
:10530000A7F9834638E7BAF1000F8EDB4FF0000BA8
:10531000594631E7AFF300809C7500883CE4377E46
:105320000000F07F0000F03F0000E03F802A010015
:105330000000E041FFFFEF3FFFFF3F43B6F5801F56
:105340004FF0000205DAD04B0BF058F80E466FF024
:105350003402DFF844E33315C6F31306A3F2FF3338
:1053600046F07F57764503EB020A47F4401740F3B7
:10537000C983C64B00229E4240F304840023CDE93A
:105380000823CDE90C23C24B0022CDE906230AF104
:10539000010AA7F5801700263946DDE90623CDE985
:1053A0000A010AF077FEDDE9062380468946DDE939
:1053B0000A010AF071FE02460B460020B4490BF0C8
:1053C00047F90A4601461346CDE90E120246494600
:1053D00040460BF013F88C4683467B1043F0005395
:1053E00003F5002399190020CDE904BC06460F46B9
:1053F0004FF0000B6146584632463B46CDE910BCA3
:10540000CDE902010AF0FAFF02460B464046494642
:105410000AF040FEDDE906238046894630463946DB
:105420000AF038FE02460B46DDE90A010AF032FEB8
:10543000DDE902230AF0E2FF02460B4640464946F8
:105440000AF028FEDDE90E230AF0D8FFDDE9047832
:10545000CDE906013A464346384641460AF0CEFFBA
:1054600077A3D3E9002306460F460AF0C7FF76A3C9
:10547000D3E900230AF010FE32463B460AF0BEFF95
:1054800073A3D3E900230AF007FE32463B460AF035
:10549000B5FF71A3D3E900230AF0FEFD32463B4677
:1054A0000AF0ACFF6EA3D3E900230AF0F5FD324603
:1054B0003B460AF0A3FF6CA3D3E900230AF0ECFDFE
:1054C0003246804689463B46304639460AF096FFCA
:1054D00002460B46404649460AF090FFDDE90223AA
:1054E00006460F46DDE904010AF0D6FDDDE9062394
:1054F0000AF084FF32463B460AF0CEFDDDE9026742
:105500008046894632463B46304639460AF076FFA9
:105510000022604BCDE90A010AF0BEFD42464B462F
:105520000AF0BAFDDDE910BC0F46DDE902015A467A
:105530003B46CDE90EBC5E460AF060FF0022CDE995
:105540000201544B304639460AF0A4FDDDE90A2336
:105550000AF0A0FD02460B46404649460AF09AFD75
:10556000DDE904230AF04AFF324680468946DDE938
:1055700006013B460AF042FF02460B4640464946BA
:105580000AF08AFD8046894602460B46DDE90201A3
:105590000AF082FDDDE90EBC35A3D3E900235846AD
:1055A000CDE906BC5E460F460AF028FFDDE902237E
:1055B000CDE90401304639460AF06CFD02460B463F
:1055C000404649460AF066FD2BA3D3E900230AF0C2
:1055D00015FF2BA3D3E90023804689463046394680
:1055E0000AF00CFF02460B46404649460AF054FDBD
:1055F000DDE90C230AF050FD8046504689460AF04A
:1056000097FE06460F46DDE9040142464B460AF086
:1056100043FDDDE908230AF03FFD32463B460AF030
:105620003BFDDDE906BC324658463B46DA468B4632
:105630000AF030FDDDE9082330E000BFAFF3008061
:10564000EF4E454A287ECA3F65DBC9934A86CD3F67
:1056500001411DA96074D13F4D268F515555D53F4D
:10566000FFAB6FDBB66DDB3F033333333333E33FE5
:10567000000000E009C7EE3FFD033ADC09C7EE3F3A
:10568000F5015B14E02F3EBE0000404379B60B00ED
:105690000000F03F000008408E9803000AF0FAFC7A
:1056A000DDE904230AF0F6FC02460B464046494673
:1056B0000AF0F0FC80468946DDE90012013C54EA1C
:1056C000050314BFD64CD74C0023CDE904340B4658
:1056D0001446CDE9023400230293DDE90245084671
:1056E0002B46114622460AF0D5FC52465B460AF08C
:1056F00085FEDDE9002306460F46404649460AF08E
:105700007DFE02460B46304639460AF0C5FC064689
:105710000F4622462B4650465946CDE900670AF00F
:105720006DFE0B46024680468946304639460AF0F1
:10573000B3FCBD4B064699420D460C4640F30E8124
:1057400001F13F4303F5E003034340F0F081A0A3E0
:10575000D3E90023DDE900010AF09EFC42468246BF
:105760008B464B46304629460AF094FC02460B46CF
:10577000504659460BF0D2F8002840F0D8812F4609
:105780003B154FF48012A3F2FE3342FA03F3234495
:10579000C3F30A52A54EA2F2FF321641C3F3130B14
:1057A0000020C2F1140523EA06014BF4801B0246D7
:1057B0000B46002C4BFA05FB40464946B8BFCBF1DF
:1057C000000B0AF067FC02460B4680468946DDE97D
:1057D00000010AF061FC4FEA0B5A00247EA3D3E9D2
:1057E000002320460D460AF009FE424606460F46B3
:1057F0004B46204629460AF04DFC02460B46DDE9A1
:1058000000010AF047FC76A3D3E900230AF0F6FD75
:1058100075A3D3E9002380468946204629460AF02D
:10582000EDFD02460B46404649460AF035FC8046EF
:10583000894602460B46304639460AF02DFC324670
:105840003B4604460D460AF025FC02460B46404600
:1058500049460AF01FFC2246804689462B462046D0
:1058600029460AF0CBFD62A3D3E9002306460F4682
:105870000AF0C4FD60A3D3E900230AF00BFC324612
:105880003B460AF0BBFD5EA3D3E900230AF004FC0B
:1058900032463B460AF0B2FD5BA3D3E900230AF08F
:1058A000F9FB32463B460AF0A9FD59A3D3E9002390
:1058B0000AF0F2FB32463B460AF0A0FD02460B46D8
:1058C000204629460AF0E6FB06460F4602460B46EE
:1058D000204629460AF092FD0022CDE900014FF052
:1058E0008043304639460AF0D5FB02460B46DDE9D7
:1058F00000010AF0ADFE424606460F464B462046E2
:1059000029460AF07BFD42464B460AF0C5FB02469B
:105910000B46304639460AF0BDFB22462B460AF0BC
:10592000B9FB02460B4600203D490AF0B3FB8A440E
:10593000BAF5801FC0F237815146DDE904230AF031
:105940005DFD834618E4F346354915E44A4648466A
:105950003B4639460AF052FD83460DE4344B21F0B4
:1059600000479F4240F30181324B0B4403430CD16B
:1059700042464B460AF08EFB02460B46DDE900012B
:105980000AF0B8FF00283FF4FBAE23A3D3E90023BD
:10599000DDE904010AF032FD1FA3D3E900230AF078
:1059A0002DFD8346FFF7E8BBBAF1000FBFF6AEACA2
:1059B000DDE900349B4604F10041FFF7DDBB024600
:1059C0000B46002016490AF043FE41E4AFF3008085
:1059D000FE822B654715973C00000000432EE63FF2
:1059E000EF39FAFE422EE63F396CA80C615C20BE0E
:1059F000D0A4BE726937663EF16BD2C541BDBB3ED5
:105A00002CDE25AF6A56113F93BDBE166CC1663FB2
:105A10003E5555555555C53F59F3F8C21F6EA50162
:105A20000000F03F0000F0BFFFFF8F40FFFF0F00BE
:105A3000FFCB904000346F3F6F4B9E427FF763ACCB
:105A40006E4B9E423FF7EEAB00226C4B0AF022FBFE
:105A50005BA3D3E9002306460F460AF0CFFC5AA306
:105A6000D3E9002380468946304639460AF0C6FC11
:105A7000002282468B46624B304639460AF0BEFC15
:105A800002460B4652A1D1E900010AF003FB32465F
:105A90003B460AF0B3FC02460B46002059490AF087
:105AA000F9FA3246CDE902013B46304639460AF062
:105AB000A5FC02460B46DDE902010AF09FFC46A365
:105AC000D3E900230AF09AFC02460B465046594699
:105AD0000AF0E0FA02460B4606460F4640464946A3
